{
  "contractName": "PUNK",
  "abi": [
    {
      "inputs": [],
      "stateMutability": "nonpayable",
      "type": "constructor"
    },
    {
      "anonymous": false,
      "inputs": [
        {
          "indexed": true,
          "internalType": "address",
          "name": "owner",
          "type": "address"
        },
        {
          "indexed": true,
          "internalType": "address",
          "name": "approved",
          "type": "address"
        },
        {
          "indexed": true,
          "internalType": "uint256",
          "name": "tokenId",
          "type": "uint256"
        }
      ],
      "name": "Approval",
      "type": "event"
    },
    {
      "anonymous": false,
      "inputs": [
        {
          "indexed": true,
          "internalType": "address",
          "name": "owner",
          "type": "address"
        },
        {
          "indexed": true,
          "internalType": "address",
          "name": "operator",
          "type": "address"
        },
        {
          "indexed": false,
          "internalType": "bool",
          "name": "approved",
          "type": "bool"
        }
      ],
      "name": "ApprovalForAll",
      "type": "event"
    },
    {
      "anonymous": false,
      "inputs": [
        {
          "indexed": true,
          "internalType": "address",
          "name": "previousOwner",
          "type": "address"
        },
        {
          "indexed": true,
          "internalType": "address",
          "name": "newOwner",
          "type": "address"
        }
      ],
      "name": "OwnershipTransferred",
      "type": "event"
    },
    {
      "anonymous": false,
      "inputs": [
        {
          "indexed": true,
          "internalType": "address",
          "name": "from",
          "type": "address"
        },
        {
          "indexed": true,
          "internalType": "address",
          "name": "to",
          "type": "address"
        },
        {
          "indexed": true,
          "internalType": "uint256",
          "name": "tokenId",
          "type": "uint256"
        }
      ],
      "name": "Transfer",
      "type": "event"
    },
    {
      "inputs": [],
      "name": "MAX_MCP",
      "outputs": [
        {
          "internalType": "uint256",
          "name": "",
          "type": "uint256"
        }
      ],
      "stateMutability": "view",
      "type": "function",
      "constant": true
    },
    {
      "inputs": [],
      "name": "MCPPrice_public",
      "outputs": [
        {
          "internalType": "uint256",
          "name": "",
          "type": "uint256"
        }
      ],
      "stateMutability": "view",
      "type": "function",
      "constant": true
    },
    {
      "inputs": [],
      "name": "MCPPrice_whitelist",
      "outputs": [
        {
          "internalType": "uint256",
          "name": "",
          "type": "uint256"
        }
      ],
      "stateMutability": "view",
      "type": "function",
      "constant": true
    },
    {
      "inputs": [],
      "name": "MCPReserve",
      "outputs": [
        {
          "internalType": "uint256",
          "name": "",
          "type": "uint256"
        }
      ],
      "stateMutability": "view",
      "type": "function",
      "constant": true
    },
    {
      "inputs": [],
      "name": "MCPWhitelistReserve",
      "outputs": [
        {
          "internalType": "uint256",
          "name": "",
          "type": "uint256"
        }
      ],
      "stateMutability": "view",
      "type": "function",
      "constant": true
    },
    {
      "inputs": [
        {
          "internalType": "address",
          "name": "to",
          "type": "address"
        },
        {
          "internalType": "uint256",
          "name": "tokenId",
          "type": "uint256"
        }
      ],
      "name": "approve",
      "outputs": [],
      "stateMutability": "nonpayable",
      "type": "function"
    },
    {
      "inputs": [
        {
          "internalType": "address",
          "name": "owner",
          "type": "address"
        }
      ],
      "name": "balanceOf",
      "outputs": [
        {
          "internalType": "uint256",
          "name": "",
          "type": "uint256"
        }
      ],
      "stateMutability": "view",
      "type": "function",
      "constant": true
    },
    {
      "inputs": [],
      "name": "baseTokenURI",
      "outputs": [
        {
          "internalType": "string",
          "name": "",
          "type": "string"
        }
      ],
      "stateMutability": "view",
      "type": "function",
      "constant": true
    },
    {
      "inputs": [
        {
          "internalType": "uint256",
          "name": "tokenId",
          "type": "uint256"
        }
      ],
      "name": "getApproved",
      "outputs": [
        {
          "internalType": "address",
          "name": "",
          "type": "address"
        }
      ],
      "stateMutability": "view",
      "type": "function",
      "constant": true
    },
    {
      "inputs": [
        {
          "internalType": "address",
          "name": "owner",
          "type": "address"
        },
        {
          "internalType": "address",
          "name": "operator",
          "type": "address"
        }
      ],
      "name": "isApprovedForAll",
      "outputs": [
        {
          "internalType": "bool",
          "name": "",
          "type": "bool"
        }
      ],
      "stateMutability": "view",
      "type": "function",
      "constant": true
    },
    {
      "inputs": [],
      "name": "maxMCPPurchase",
      "outputs": [
        {
          "internalType": "uint256",
          "name": "",
          "type": "uint256"
        }
      ],
      "stateMutability": "view",
      "type": "function",
      "constant": true
    },
    {
      "inputs": [],
      "name": "maxMCPPurchaseWL",
      "outputs": [
        {
          "internalType": "uint256",
          "name": "",
          "type": "uint256"
        }
      ],
      "stateMutability": "view",
      "type": "function",
      "constant": true
    },
    {
      "inputs": [],
      "name": "maxMCPTx",
      "outputs": [
        {
          "internalType": "uint256",
          "name": "",
          "type": "uint256"
        }
      ],
      "stateMutability": "view",
      "type": "function",
      "constant": true
    },
    {
      "inputs": [],
      "name": "merkleRoot",
      "outputs": [
        {
          "internalType": "bytes32",
          "name": "",
          "type": "bytes32"
        }
      ],
      "stateMutability": "view",
      "type": "function",
      "constant": true
    },
    {
      "inputs": [],
      "name": "mintWhitelistWL",
      "outputs": [
        {
          "internalType": "uint256",
          "name": "",
          "type": "uint256"
        }
      ],
      "stateMutability": "view",
      "type": "function",
      "constant": true
    },
    {
      "inputs": [],
      "name": "name",
      "outputs": [
        {
          "internalType": "string",
          "name": "",
          "type": "string"
        }
      ],
      "stateMutability": "view",
      "type": "function",
      "constant": true
    },
    {
      "inputs": [],
      "name": "owner",
      "outputs": [
        {
          "internalType": "address",
          "name": "",
          "type": "address"
        }
      ],
      "stateMutability": "view",
      "type": "function",
      "constant": true
    },
    {
      "inputs": [
        {
          "internalType": "uint256",
          "name": "tokenId",
          "type": "uint256"
        }
      ],
      "name": "ownerOf",
      "outputs": [
        {
          "internalType": "address",
          "name": "",
          "type": "address"
        }
      ],
      "stateMutability": "view",
      "type": "function",
      "constant": true
    },
    {
      "inputs": [],
      "name": "publicSaleIsActive",
      "outputs": [
        {
          "internalType": "bool",
          "name": "",
          "type": "bool"
        }
      ],
      "stateMutability": "view",
      "type": "function",
      "constant": true
    },
    {
      "inputs": [
        {
          "internalType": "uint256",
          "name": "tokenId",
          "type": "uint256"
        }
      ],
      "name": "rawOwnerOf",
      "outputs": [
        {
          "internalType": "address",
          "name": "",
          "type": "address"
        }
      ],
      "stateMutability": "view",
      "type": "function",
      "constant": true
    },
    {
      "inputs": [
        {
          "internalType": "address",
          "name": "from",
          "type": "address"
        },
        {
          "internalType": "address",
          "name": "to",
          "type": "address"
        },
        {
          "internalType": "uint256",
          "name": "tokenId",
          "type": "uint256"
        }
      ],
      "name": "safeTransferFrom",
      "outputs": [],
      "stateMutability": "nonpayable",
      "type": "function"
    },
    {
      "inputs": [
        {
          "internalType": "address",
          "name": "from",
          "type": "address"
        },
        {
          "internalType": "address",
          "name": "to",
          "type": "address"
        },
        {
          "internalType": "uint256",
          "name": "tokenId",
          "type": "uint256"
        },
        {
          "internalType": "bytes",
          "name": "_data",
          "type": "bytes"
        }
      ],
      "name": "safeTransferFrom",
      "outputs": [],
      "stateMutability": "nonpayable",
      "type": "function"
    },
    {
      "inputs": [
        {
          "internalType": "address",
          "name": "operator",
          "type": "address"
        },
        {
          "internalType": "bool",
          "name": "approved",
          "type": "bool"
        }
      ],
      "name": "setApprovalForAll",
      "outputs": [],
      "stateMutability": "nonpayable",
      "type": "function"
    },
    {
      "inputs": [
        {
          "internalType": "bytes4",
          "name": "interfaceId",
          "type": "bytes4"
        }
      ],
      "name": "supportsInterface",
      "outputs": [
        {
          "internalType": "bool",
          "name": "",
          "type": "bool"
        }
      ],
      "stateMutability": "view",
      "type": "function",
      "constant": true
    },
    {
      "inputs": [],
      "name": "symbol",
      "outputs": [
        {
          "internalType": "string",
          "name": "",
          "type": "string"
        }
      ],
      "stateMutability": "view",
      "type": "function",
      "constant": true
    },
    {
      "inputs": [
        {
          "internalType": "uint256",
          "name": "index",
          "type": "uint256"
        }
      ],
      "name": "tokenByIndex",
      "outputs": [
        {
          "internalType": "uint256",
          "name": "",
          "type": "uint256"
        }
      ],
      "stateMutability": "view",
      "type": "function",
      "constant": true
    },
    {
      "inputs": [
        {
          "internalType": "uint256",
          "name": "tokenId",
          "type": "uint256"
        }
      ],
      "name": "tokenURI",
      "outputs": [
        {
          "internalType": "string",
          "name": "",
          "type": "string"
        }
      ],
      "stateMutability": "view",
      "type": "function",
      "constant": true
    },
    {
      "inputs": [],
      "name": "totalSupply",
      "outputs": [
        {
          "internalType": "uint256",
          "name": "",
          "type": "uint256"
        }
      ],
      "stateMutability": "view",
      "type": "function",
      "constant": true
    },
    {
      "inputs": [
        {
          "internalType": "address",
          "name": "from",
          "type": "address"
        },
        {
          "internalType": "address",
          "name": "to",
          "type": "address"
        },
        {
          "internalType": "uint256",
          "name": "tokenId",
          "type": "uint256"
        }
      ],
      "name": "transferFrom",
      "outputs": [],
      "stateMutability": "nonpayable",
      "type": "function"
    },
    {
      "inputs": [
        {
          "internalType": "address",
          "name": "newOwner",
          "type": "address"
        }
      ],
      "name": "transferOwnership",
      "outputs": [],
      "stateMutability": "nonpayable",
      "type": "function"
    },
    {
      "inputs": [],
      "name": "whitelistSaleIsActive",
      "outputs": [
        {
          "internalType": "bool",
          "name": "",
          "type": "bool"
        }
      ],
      "stateMutability": "view",
      "type": "function",
      "constant": true
    },
    {
      "inputs": [],
      "name": "withdraw",
      "outputs": [],
      "stateMutability": "nonpayable",
      "type": "function"
    },
    {
      "inputs": [
        {
          "internalType": "address",
          "name": "_to",
          "type": "address"
        },
        {
          "internalType": "uint256",
          "name": "_reserveAmount",
          "type": "uint256"
        }
      ],
      "name": "reserveMCP",
      "outputs": [],
      "stateMutability": "nonpayable",
      "type": "function"
    },
    {
      "inputs": [
        {
          "internalType": "string",
          "name": "baseURI",
          "type": "string"
        }
      ],
      "name": "setBaseURI",
      "outputs": [],
      "stateMutability": "nonpayable",
      "type": "function"
    },
    {
      "inputs": [],
      "name": "flipPublicSaleState",
      "outputs": [],
      "stateMutability": "nonpayable",
      "type": "function"
    },
    {
      "inputs": [],
      "name": "flipWPSaleState",
      "outputs": [],
      "stateMutability": "nonpayable",
      "type": "function"
    },
    {
      "inputs": [
        {
          "internalType": "uint256",
          "name": "numberOfTokens",
          "type": "uint256"
        }
      ],
      "name": "mint",
      "outputs": [],
      "stateMutability": "payable",
      "type": "function",
      "payable": true
    },
    {
      "inputs": [
        {
          "internalType": "uint256",
          "name": "numberOfTokens",
          "type": "uint256"
        },
        {
          "internalType": "bytes32[]",
          "name": "merkleProof",
          "type": "bytes32[]"
        },
        {
          "internalType": "bytes32",
          "name": "merkleLeaf",
          "type": "bytes32"
        }
      ],
      "name": "mintWhitelist",
      "outputs": [],
      "stateMutability": "payable",
      "type": "function",
      "payable": true
    },
    {
      "inputs": [],
      "name": "withdrawAll",
      "outputs": [],
      "stateMutability": "nonpayable",
      "type": "function"
    },
    {
      "inputs": [
        {
          "internalType": "uint256",
          "name": "newPriceWL",
          "type": "uint256"
        }
      ],
      "name": "setPriceWL",
      "outputs": [],
      "stateMutability": "nonpayable",
      "type": "function"
    },
    {
      "inputs": [
        {
          "internalType": "uint256",
          "name": "newPrice",
          "type": "uint256"
        }
      ],
      "name": "setPrice",
      "outputs": [],
      "stateMutability": "nonpayable",
      "type": "function"
    },
    {
      "inputs": [
        {
          "internalType": "uint256",
          "name": "newmaxMCPTx",
          "type": "uint256"
        }
      ],
      "name": "setmaxMCPTx",
      "outputs": [],
      "stateMutability": "nonpayable",
      "type": "function"
    },
    {
      "inputs": [
        {
          "internalType": "uint256",
          "name": "newmaxMCPPurchase",
          "type": "uint256"
        }
      ],
      "name": "setmaxMCPPurchase",
      "outputs": [],
      "stateMutability": "nonpayable",
      "type": "function"
    },
    {
      "inputs": [
        {
          "internalType": "uint256",
          "name": "newmintWhitelistWL",
          "type": "uint256"
        }
      ],
      "name": "setmintWhitelistWL",
      "outputs": [],
      "stateMutability": "nonpayable",
      "type": "function"
    }
  ],
  "bytecode": "0x60806040527fcf8f50f657f2c8f3bf6628b05dcaf8aa2a8ced8db49eef4ff5a5767d72cb3c4a60001b600d5573431840a475e0ad62f9a67d752c9110f09cdb97c7600e60006101000a81548173ffffffffffffffffffffffffffffffffffffffff021916908373ffffffffffffffffffffffffffffffffffffffff160217905550734e209fc427ba76f073a91e837a1e3377ecfb9b6a600f60006101000a81548173ffffffffffffffffffffffffffffffffffffffff021916908373ffffffffffffffffffffffffffffffffffffffff16021790555073f2bad1685b3b77ae95d165a1417273cbe121bddc601060006101000a81548173ffffffffffffffffffffffffffffffffffffffff021916908373ffffffffffffffffffffffffffffffffffffffff1602179055507340b15d228838836b62fb372dbbabcdb7c8f89b49601160006101000a81548173ffffffffffffffffffffffffffffffffffffffff021916908373ffffffffffffffffffffffffffffffffffffffff16021790555073b3a696bd8d35c2908e2fd1805c75718088acbd57601260006101000a81548173ffffffffffffffffffffffffffffffffffffffff021916908373ffffffffffffffffffffffffffffffffffffffff16021790555073431840a475e0ad62f9a67d752c9110f09cdb97c7601360006101000a81548173ffffffffffffffffffffffffffffffffffffffff021916908373ffffffffffffffffffffffffffffffffffffffff160217905550661aa535d3d0c00060145566354a6ba7a1800060155560146016556028601755600a601855600a6019556000601a55610d9d601b556001601c60006101000a81548160ff0219169083151502179055506001601c60016101000a81548160ff021916908315150217905550348015620002a157600080fd5b506040518060400160405280600e81526020017f546573742050756e6b73204e46540000000000000000000000000000000000008152506040518060400160405280600481526020017f50554e4b0000000000000000000000000000000000000000000000000000000081525081600090805190602001906200032692919062000436565b5080600190805190602001906200033f92919062000436565b50505062000362620003566200036860201b60201c565b6200037060201b60201c565b6200054b565b600033905090565b6000600a60009054906101000a900473ffffffffffffffffffffffffffffffffffffffff16905081600a60006101000a81548173ffffffffffffffffffffffffffffffffffffffff021916908373ffffffffffffffffffffffffffffffffffffffff1602179055508173ffffffffffffffffffffffffffffffffffffffff168173ffffffffffffffffffffffffffffffffffffffff167f8be0079c531659141344cd1fd0a4f28419497f9722a3daafe3b4186f6b6457e060405160405180910390a35050565b8280546200044490620004e6565b90600052602060002090601f016020900481019282620004685760008555620004b4565b82601f106200048357805160ff1916838001178555620004b4565b82800160010185558215620004b4579182015b82811115620004b357825182559160200191906001019062000496565b5b509050620004c39190620004c7565b5090565b5b80821115620004e2576000816000905550600101620004c8565b5090565b60006002820490506001821680620004ff57607f821691505b602082108114156200051657620005156200051c565b5b50919050565b7f4e487b7100000000000000000000000000000000000000000000000000000000600052602260045260246000fd5b615678806200055b6000396000f3fe6080604052600436106102675760003560e01c80637f81be6911610144578063a10866ef116100b6578063d547cfb71161007a578063d547cfb7146108dc578063e985e9c514610907578063ec63d8f914610944578063f0eb4ff61461096f578063f2fde38b14610998578063f6efe0ed146109c157610267565b8063a10866ef1461080b578063a22cb46514610822578063abd46f251461084b578063b88d4fde14610876578063c87b56dd1461089f57610267565b8063853828b611610108578063853828b6146107305780638da5cb5b146107475780638ec7d9cd1461077257806391b7f5ed1461079b57806395d89b41146107c4578063a0712d68146107ef57610267565b80637f81be691461064957806380a181dc1461068657806381d8488f146106b157806383000718146106da57806384d53d281461070557610267565b80633ccfd60b116101dd57806355f804b3116101a157806355f804b3146105275780636352211e1461055057806370a082311461058d578063787f93d8146105ca5780637de9784c146105f55780637f5da8781461062057610267565b80633ccfd60b146104635780633f73fc6c1461047a5780633fdf2e9a146104a557806342842e0e146104c15780634f6ccce7146104ea57610267565b806310b5454d1161022f57806310b5454d1461036557806318160ddd146103905780631a40ad9f146103bb5780631ccfa729146103e657806323b872dd1461040f5780632eb4a7ab1461043857610267565b806301ffc9a71461026c57806306fdde03146102a9578063081812fc146102d4578063095ea7b3146103115780630fcf2e751461033a575b600080fd5b34801561027857600080fd5b50610293600480360381019061028e9190614108565b6109d8565b6040516102a09190614d85565b60405180910390f35b3480156102b557600080fd5b506102be610a52565b6040516102cb9190614dbb565b60405180910390f35b3480156102e057600080fd5b506102fb60048036038101906102f6919061419b565b610ae4565b6040516103089190614d1e565b60405180910390f35b34801561031d57600080fd5b50610338600480360381019061033391906140cc565b610b69565b005b34801561034657600080fd5b5061034f610c81565b60405161035c9190614d85565b60405180910390f35b34801561037157600080fd5b5061037a610c94565b6040516103879190614d85565b60405180910390f35b34801561039c57600080fd5b506103a5610ca7565b6040516103b2919061517d565b60405180910390f35b3480156103c757600080fd5b506103d0610cb4565b6040516103dd919061517d565b60405180910390f35b3480156103f257600080fd5b5061040d6004803603810190610408919061419b565b610cba565b005b34801561041b57600080fd5b5061043660048036038101906104319190613fc6565b610d9f565b005b34801561044457600080fd5b5061044d610dff565b60405161045a9190614da0565b60405180910390f35b34801561046f57600080fd5b50610478610e05565b005b34801561048657600080fd5b5061048f610ed0565b60405161049c919061517d565b60405180910390f35b6104bf60048036038101906104ba91906141c4565b610ed6565b005b3480156104cd57600080fd5b506104e860048036038101906104e39190613fc6565b61127e565b005b3480156104f657600080fd5b50610511600480360381019061050c919061419b565b61129e565b60405161051e919061517d565b60405180910390f35b34801561053357600080fd5b5061054e6004803603810190610549919061415a565b611335565b005b34801561055c57600080fd5b506105776004803603810190610572919061419b565b61142a565b6040516105849190614d1e565b60405180910390f35b34801561059957600080fd5b506105b460048036038101906105af9190613f61565b6114dc565b6040516105c1919061517d565b60405180910390f35b3480156105d657600080fd5b506105df611594565b6040516105ec919061517d565b60405180910390f35b34801561060157600080fd5b5061060a61159a565b604051610617919061517d565b60405180910390f35b34801561062c57600080fd5b50610647600480360381019061064291906140cc565b6115a0565b005b34801561065557600080fd5b50610670600480360381019061066b919061419b565b611738565b60405161067d9190614d1e565b60405180910390f35b34801561069257600080fd5b5061069b611775565b6040516106a8919061517d565b60405180910390f35b3480156106bd57600080fd5b506106d860048036038101906106d3919061419b565b61177b565b005b3480156106e657600080fd5b506106ef611860565b6040516106fc919061517d565b60405180910390f35b34801561071157600080fd5b5061071a611866565b604051610727919061517d565b60405180910390f35b34801561073c57600080fd5b5061074561186c565b005b34801561075357600080fd5b5061075c611d20565b6040516107699190614d1e565b60405180910390f35b34801561077e57600080fd5b506107996004803603810190610794919061419b565b611d4a565b005b3480156107a757600080fd5b506107c260048036038101906107bd919061419b565b611e2f565b005b3480156107d057600080fd5b506107d9611f14565b6040516107e69190614dbb565b60405180910390f35b6108096004803603810190610804919061419b565b611fa6565b005b34801561081757600080fd5b506108206122b9565b005b34801561082e57600080fd5b5061084960048036038101906108449190614090565b6123c0565b005b34801561085757600080fd5b50610860612541565b60405161086d919061517d565b60405180910390f35b34801561088257600080fd5b5061089d60048036038101906108989190614015565b612547565b005b3480156108ab57600080fd5b506108c660048036038101906108c1919061419b565b6125a9565b6040516108d39190614dbb565b60405180910390f35b3480156108e857600080fd5b506108f1612650565b6040516108fe9190614dbb565b60405180910390f35b34801561091357600080fd5b5061092e60048036038101906109299190613f8a565b6126de565b60405161093b9190614d85565b60405180910390f35b34801561095057600080fd5b50610959612772565b604051610966919061517d565b60405180910390f35b34801561097b57600080fd5b506109966004803603810190610991919061419b565b612778565b005b3480156109a457600080fd5b506109bf60048036038101906109ba9190613f61565b61285d565b005b3480156109cd57600080fd5b506109d6612955565b005b60007f577ac13a000000000000000000000000000000000000000000000000000000007bffffffffffffffffffffffffffffffffffffffffffffffffffffffff1916827bffffffffffffffffffffffffffffffffffffffffffffffffffffffff19161480610a4b5750610a4a82612a5c565b5b9050919050565b606060008054610a619061544c565b80601f0160208091040260200160405190810160405280929190818152602001828054610a8d9061544c565b8015610ada5780601f10610aaf57610100808354040283529160200191610ada565b820191906000526020600020905b815481529060010190602001808311610abd57829003601f168201915b5050505050905090565b6000610aef82612b3e565b610b2e576040517f08c379a0000000000000000000000000000000000000000000000000000000008152600401610b2590614fdd565b60405180910390fd5b6004600083815260200190815260200160002060009054906101000a900473ffffffffffffffffffffffffffffffffffffffff169050919050565b6000610b748261142a565b90508073ffffffffffffffffffffffffffffffffffffffff168373ffffffffffffffffffffffffffffffffffffffff161415610be5576040517f08c379a0000000000000000000000000000000000000000000000000000000008152600401610bdc9061509d565b60405180910390fd5b8073ffffffffffffffffffffffffffffffffffffffff16610c04612baa565b73ffffffffffffffffffffffffffffffffffffffff161480610c335750610c3281610c2d612baa565b6126de565b5b610c72576040517f08c379a0000000000000000000000000000000000000000000000000000000008152600401610c6990614f3d565b60405180910390fd5b610c7c8383612bb2565b505050565b601c60019054906101000a900460ff1681565b601c60009054906101000a900460ff1681565b6000600880549050905090565b611b3981565b610cc2611d20565b73ffffffffffffffffffffffffffffffffffffffff16610ce0612baa565b73ffffffffffffffffffffffffffffffffffffffff161480610d565750601360009054906101000a900473ffffffffffffffffffffffffffffffffffffffff1673ffffffffffffffffffffffffffffffffffffffff16610d3e612baa565b73ffffffffffffffffffffffffffffffffffffffff16145b610d95576040517f08c379a0000000000000000000000000000000000000000000000000000000008152600401610d8c9061515d565b60405180910390fd5b8060168190555050565b610db0610daa612baa565b82612c6b565b610def576040517f08c379a0000000000000000000000000000000000000000000000000000000008152600401610de6906150bd565b60405180910390fd5b610dfa838383612d49565b505050565b600d5481565b610e0d612baa565b73ffffffffffffffffffffffffffffffffffffffff16610e2b611d20565b73ffffffffffffffffffffffffffffffffffffffff1614610e81576040517f08c379a0000000000000000000000000000000000000000000000000000000008152600401610e7890614ffd565b60405180910390fd5b60004790503373ffffffffffffffffffffffffffffffffffffffff166108fc829081150290604051600060405180830381858888f19350505050158015610ecc573d6000803e3d6000fd5b5050565b601a5481565b6000339050601c60009054906101000a900460ff16610f2a576040517f08c379a0000000000000000000000000000000000000000000000000000000008152600401610f2190614e7d565b60405180910390fd5b600085118015610f3c57506018548511155b610f7b576040517f08c379a0000000000000000000000000000000000000000000000000000000008152600401610f7290614ddd565b60405180910390fd5b610f9085601454612fa590919063ffffffff16565b3414610fd1576040517f08c379a0000000000000000000000000000000000000000000000000000000008152600401610fc89061511d565b60405180910390fd5b60195461102686601d60003373ffffffffffffffffffffffffffffffffffffffff1673ffffffffffffffffffffffffffffffffffffffff16815260200190815260200160002054612fbb90919063ffffffff16565b1115611067576040517f08c379a000000000000000000000000000000000000000000000000000000000815260040161105e906150dd565b60405180910390fd5b6110b5848480806020026020016040519081016040528093929190818152602001838360200280828437600081840152601f19601f82011690508083019250505050505050600d5484612fd1565b6110f4576040517f08c379a00000000000000000000000000000000000000000000000000000000081526004016110eb9061501d565b60405180910390fd5b60005b8581101561127657601b5461110a610ca7565b116111c75761112c33600161111d610ca7565b6111279190615277565b6130ad565b61117f6001601d60003373ffffffffffffffffffffffffffffffffffffffff1673ffffffffffffffffffffffffffffffffffffffff16815260200190815260200160002054612fbb90919063ffffffff16565b601d60003373ffffffffffffffffffffffffffffffffffffffff1673ffffffffffffffffffffffffffffffffffffffff16815260200190815260200160002081905550611263565b601c60009054906101000a900460ff1615601c60006101000a81548160ff0219169083151502179055503373ffffffffffffffffffffffffffffffffffffffff166108fc611232601454611224858b6130cb90919063ffffffff16565b612fa590919063ffffffff16565b9081150290604051600060405180830381858888f1935050505015801561125d573d6000803e3d6000fd5b50611276565b808061126e9061547e565b9150506110f7565b505050505050565b61129983838360405180602001604052806000815250612547565b505050565b60006112a8610ca7565b82106112e9576040517f08c379a00000000000000000000000000000000000000000000000000000000081526004016112e0906150fd565b60405180910390fd5b60088281548110611323577f4e487b7100000000000000000000000000000000000000000000000000000000600052603260045260246000fd5b90600052602060002001549050919050565b61133d611d20565b73ffffffffffffffffffffffffffffffffffffffff1661135b612baa565b73ffffffffffffffffffffffffffffffffffffffff1614806113d15750601360009054906101000a900473ffffffffffffffffffffffffffffffffffffffff1673ffffffffffffffffffffffffffffffffffffffff166113b9612baa565b73ffffffffffffffffffffffffffffffffffffffff16145b611410576040517f08c379a00000000000000000000000000000000000000000000000000000000081526004016114079061515d565b60405180910390fd5b80601e9080519060200190611426929190613d26565b5050565b6000806002600084815260200190815260200160002060009054906101000a900473ffffffffffffffffffffffffffffffffffffffff169050600073ffffffffffffffffffffffffffffffffffffffff168173ffffffffffffffffffffffffffffffffffffffff1614156114d3576040517f08c379a00000000000000000000000000000000000000000000000000000000081526004016114ca90614f7d565b60405180910390fd5b80915050919050565b60008073ffffffffffffffffffffffffffffffffffffffff168273ffffffffffffffffffffffffffffffffffffffff16141561154d576040517f08c379a000000000000000000000000000000000000000000000000000000000815260040161154490614f5d565b60405180910390fd5b600360008373ffffffffffffffffffffffffffffffffffffffff1673ffffffffffffffffffffffffffffffffffffffff168152602001908152602001600020549050919050565b60175481565b60145481565b6115a8611d20565b73ffffffffffffffffffffffffffffffffffffffff166115c6612baa565b73ffffffffffffffffffffffffffffffffffffffff16148061163c5750601360009054906101000a900473ffffffffffffffffffffffffffffffffffffffff1673ffffffffffffffffffffffffffffffffffffffff16611624612baa565b73ffffffffffffffffffffffffffffffffffffffff16145b61167b576040517f08c379a00000000000000000000000000000000000000000000000000000000081526004016116729061515d565b60405180910390fd5b6000611685610ca7565b90506000821180156116995750601a548211155b6116d8576040517f08c379a00000000000000000000000000000000000000000000000000000000081526004016116cf9061507d565b60405180910390fd5b60005b828110156117175761170484600183856116f59190615277565b6116ff9190615277565b6130ad565b808061170f9061547e565b9150506116db565b5061172d82601a546130cb90919063ffffffff16565b601a81905550505050565b60006002600083815260200190815260200160002060009054906101000a900473ffffffffffffffffffffffffffffffffffffffff169050919050565b60185481565b611783611d20565b73ffffffffffffffffffffffffffffffffffffffff166117a1612baa565b73ffffffffffffffffffffffffffffffffffffffff1614806118175750601360009054906101000a900473ffffffffffffffffffffffffffffffffffffffff1673ffffffffffffffffffffffffffffffffffffffff166117ff612baa565b73ffffffffffffffffffffffffffffffffffffffff16145b611856576040517f08c379a000000000000000000000000000000000000000000000000000000000815260040161184d9061515d565b60405180910390fd5b8060148190555050565b601b5481565b60165481565b611874612baa565b73ffffffffffffffffffffffffffffffffffffffff16611892611d20565b73ffffffffffffffffffffffffffffffffffffffff16146118e8576040517f08c379a00000000000000000000000000000000000000000000000000000000081526004016118df90614ffd565b60405180910390fd5b6000471161192b576040517f08c379a000000000000000000000000000000000000000000000000000000000815260040161192290614e9d565b60405180910390fd5b60004790506000600e60009054906101000a900473ffffffffffffffffffffffffffffffffffffffff1673ffffffffffffffffffffffffffffffffffffffff166119926064611984601486612fa590919063ffffffff16565b6130e190919063ffffffff16565b60405161199e90614d09565b60006040518083038185875af1925050503d80600081146119db576040519150601f19603f3d011682016040523d82523d6000602084013e6119e0565b606091505b505090506000600f60009054906101000a900473ffffffffffffffffffffffffffffffffffffffff1673ffffffffffffffffffffffffffffffffffffffff16611a466064611a38601487612fa590919063ffffffff16565b6130e190919063ffffffff16565b604051611a5290614d09565b60006040518083038185875af1925050503d8060008114611a8f576040519150601f19603f3d011682016040523d82523d6000602084013e611a94565b606091505b505090506000601060009054906101000a900473ffffffffffffffffffffffffffffffffffffffff1673ffffffffffffffffffffffffffffffffffffffff16611afa6064611aec601488612fa590919063ffffffff16565b6130e190919063ffffffff16565b604051611b0690614d09565b60006040518083038185875af1925050503d8060008114611b43576040519150601f19603f3d011682016040523d82523d6000602084013e611b48565b606091505b505090506000601160009054906101000a900473ffffffffffffffffffffffffffffffffffffffff1673ffffffffffffffffffffffffffffffffffffffff16611bae6064611ba0601489612fa590919063ffffffff16565b6130e190919063ffffffff16565b604051611bba90614d09565b60006040518083038185875af1925050503d8060008114611bf7576040519150601f19603f3d011682016040523d82523d6000602084013e611bfc565b606091505b505090506000601260009054906101000a900473ffffffffffffffffffffffffffffffffffffffff1673ffffffffffffffffffffffffffffffffffffffff16611c626064611c5460148a612fa590919063ffffffff16565b6130e190919063ffffffff16565b604051611c6e90614d09565b60006040518083038185875af1925050503d8060008114611cab576040519150601f19603f3d011682016040523d82523d6000602084013e611cb0565b606091505b50509050848015611cbe5750835b8015611cc75750825b8015611cd05750815b8015611cd95750805b611d18576040517f08c379a0000000000000000000000000000000000000000000000000000000008152600401611d0f9061513d565b60405180910390fd5b505050505050565b6000600a60009054906101000a900473ffffffffffffffffffffffffffffffffffffffff16905090565b611d52611d20565b73ffffffffffffffffffffffffffffffffffffffff16611d70612baa565b73ffffffffffffffffffffffffffffffffffffffff161480611de65750601360009054906101000a900473ffffffffffffffffffffffffffffffffffffffff1673ffffffffffffffffffffffffffffffffffffffff16611dce612baa565b73ffffffffffffffffffffffffffffffffffffffff16145b611e25576040517f08c379a0000000000000000000000000000000000000000000000000000000008152600401611e1c9061515d565b60405180910390fd5b8060178190555050565b611e37611d20565b73ffffffffffffffffffffffffffffffffffffffff16611e55612baa565b73ffffffffffffffffffffffffffffffffffffffff161480611ecb5750601360009054906101000a900473ffffffffffffffffffffffffffffffffffffffff1673ffffffffffffffffffffffffffffffffffffffff16611eb3612baa565b73ffffffffffffffffffffffffffffffffffffffff16145b611f0a576040517f08c379a0000000000000000000000000000000000000000000000000000000008152600401611f019061515d565b60405180910390fd5b8060158190555050565b606060018054611f239061544c565b80601f0160208091040260200160405190810160405280929190818152602001828054611f4f9061544c565b8015611f9c5780601f10611f7157610100808354040283529160200191611f9c565b820191906000526020600020905b815481529060010190602001808311611f7f57829003601f168201915b5050505050905090565b601c60019054906101000a900460ff16611ff5576040517f08c379a0000000000000000000000000000000000000000000000000000000008152600401611fec90614f1d565b60405180910390fd5b60008111801561200757506016548111155b612046576040517f08c379a000000000000000000000000000000000000000000000000000000000815260040161203d90614f9d565b60405180910390fd5b61205b81601554612fa590919063ffffffff16565b341461209c576040517f08c379a00000000000000000000000000000000000000000000000000000000081526004016120939061511d565b60405180910390fd5b6017546120f182601d60003373ffffffffffffffffffffffffffffffffffffffff1673ffffffffffffffffffffffffffffffffffffffff16815260200190815260200160002054612fbb90919063ffffffff16565b1115612132576040517f08c379a000000000000000000000000000000000000000000000000000000000815260040161212990614e1d565b60405180910390fd5b60005b818110156122b557611b39612148610ca7565b10156122065761216b33600161215c610ca7565b6121669190615277565b6130ad565b6121be6001601d60003373ffffffffffffffffffffffffffffffffffffffff1673ffffffffffffffffffffffffffffffffffffffff16815260200190815260200160002054612fbb90919063ffffffff16565b601d60003373ffffffffffffffffffffffffffffffffffffffff1673ffffffffffffffffffffffffffffffffffffffff168152602001908152602001600020819055506122a2565b601c60019054906101000a900460ff1615601c60016101000a81548160ff0219169083151502179055503373ffffffffffffffffffffffffffffffffffffffff166108fc61227160155461226385876130cb90919063ffffffff16565b612fa590919063ffffffff16565b9081150290604051600060405180830381858888f1935050505015801561229c573d6000803e3d6000fd5b506122b5565b80806122ad9061547e565b915050612135565b5050565b6122c1611d20565b73ffffffffffffffffffffffffffffffffffffffff166122df612baa565b73ffffffffffffffffffffffffffffffffffffffff1614806123555750601360009054906101000a900473ffffffffffffffffffffffffffffffffffffffff1673ffffffffffffffffffffffffffffffffffffffff1661233d612baa565b73ffffffffffffffffffffffffffffffffffffffff16145b612394576040517f08c379a000000000000000000000000000000000000000000000000000000000815260040161238b9061515d565b60405180910390fd5b601c60019054906101000a900460ff1615601c60016101000a81548160ff021916908315150217905550565b6123c8612baa565b73ffffffffffffffffffffffffffffffffffffffff168273ffffffffffffffffffffffffffffffffffffffff161415612436576040517f08c379a000000000000000000000000000000000000000000000000000000000815260040161242d90614edd565b60405180910390fd5b8060056000612443612baa565b73ffffffffffffffffffffffffffffffffffffffff1673ffffffffffffffffffffffffffffffffffffffff16815260200190815260200160002060008473ffffffffffffffffffffffffffffffffffffffff1673ffffffffffffffffffffffffffffffffffffffff16815260200190815260200160002060006101000a81548160ff0219169083151502179055508173ffffffffffffffffffffffffffffffffffffffff166124f0612baa565b73ffffffffffffffffffffffffffffffffffffffff167f17307eab39ab6107e8899845ad3d59bd9653f200f220920489ca2b5937696c31836040516125359190614d85565b60405180910390a35050565b60195481565b612558612552612baa565b83612c6b565b612597576040517f08c379a000000000000000000000000000000000000000000000000000000000815260040161258e906150bd565b60405180910390fd5b6125a3848484846130f7565b50505050565b60606125b482612b3e565b6125f3576040517f08c379a00000000000000000000000000000000000000000000000000000000081526004016125ea9061505d565b60405180910390fd5b60006125fd613153565b9050600081511161261d5760405180602001604052806000815250612648565b80612627846131e5565b604051602001612638929190614cda565b6040516020818303038152906040525b915050919050565b601e805461265d9061544c565b80601f01602080910402602001604051908101604052809291908181526020018280546126899061544c565b80156126d65780601f106126ab576101008083540402835291602001916126d6565b820191906000526020600020905b8154815290600101906020018083116126b957829003601f168201915b505050505081565b6000600560008473ffffffffffffffffffffffffffffffffffffffff1673ffffffffffffffffffffffffffffffffffffffff16815260200190815260200160002060008373ffffffffffffffffffffffffffffffffffffffff1673ffffffffffffffffffffffffffffffffffffffff16815260200190815260200160002060009054906101000a900460ff16905092915050565b60155481565b612780611d20565b73ffffffffffffffffffffffffffffffffffffffff1661279e612baa565b73ffffffffffffffffffffffffffffffffffffffff1614806128145750601360009054906101000a900473ffffffffffffffffffffffffffffffffffffffff1673ffffffffffffffffffffffffffffffffffffffff166127fc612baa565b73ffffffffffffffffffffffffffffffffffffffff16145b612853576040517f08c379a000000000000000000000000000000000000000000000000000000000815260040161284a9061515d565b60405180910390fd5b8060188190555050565b612865612baa565b73ffffffffffffffffffffffffffffffffffffffff16612883611d20565b73ffffffffffffffffffffffffffffffffffffffff16146128d9576040517f08c379a00000000000000000000000000000000000000000000000000000000081526004016128d090614ffd565b60405180910390fd5b600073ffffffffffffffffffffffffffffffffffffffff168173ffffffffffffffffffffffffffffffffffffffff161415612949576040517f08c379a000000000000000000000000000000000000000000000000000000000815260040161294090614e3d565b60405180910390fd5b61295281613392565b50565b61295d611d20565b73ffffffffffffffffffffffffffffffffffffffff1661297b612baa565b73ffffffffffffffffffffffffffffffffffffffff1614806129f15750601360009054906101000a900473ffffffffffffffffffffffffffffffffffffffff1673ffffffffffffffffffffffffffffffffffffffff166129d9612baa565b73ffffffffffffffffffffffffffffffffffffffff16145b612a30576040517f08c379a0000000000000000000000000000000000000000000000000000000008152600401612a279061515d565b60405180910390fd5b601c60009054906101000a900460ff1615601c60006101000a81548160ff021916908315150217905550565b60007f80ac58cd000000000000000000000000000000000000000000000000000000007bffffffffffffffffffffffffffffffffffffffffffffffffffffffff1916827bffffffffffffffffffffffffffffffffffffffffffffffffffffffff19161480612b2757507f5b5e139f000000000000000000000000000000000000000000000000000000007bffffffffffffffffffffffffffffffffffffffffffffffffffffffff1916827bffffffffffffffffffffffffffffffffffffffffffffffffffffffff1916145b80612b375750612b3682613458565b5b9050919050565b60008073ffffffffffffffffffffffffffffffffffffffff166002600084815260200190815260200160002060009054906101000a900473ffffffffffffffffffffffffffffffffffffffff1673ffffffffffffffffffffffffffffffffffffffff1614159050919050565b600033905090565b816004600083815260200190815260200160002060006101000a81548173ffffffffffffffffffffffffffffffffffffffff021916908373ffffffffffffffffffffffffffffffffffffffff160217905550808273ffffffffffffffffffffffffffffffffffffffff16612c258361142a565b73ffffffffffffffffffffffffffffffffffffffff167f8c5be1e5ebec7d5bd14f71427d1e84f3dd0314c0f7b2291e5b200ac8c7c3b92560405160405180910390a45050565b6000612c7682612b3e565b612cb5576040517f08c379a0000000000000000000000000000000000000000000000000000000008152600401612cac90614efd565b60405180910390fd5b6000612cc08361142a565b90508073ffffffffffffffffffffffffffffffffffffffff168473ffffffffffffffffffffffffffffffffffffffff161480612d2f57508373ffffffffffffffffffffffffffffffffffffffff16612d1784610ae4565b73ffffffffffffffffffffffffffffffffffffffff16145b80612d405750612d3f81856126de565b5b91505092915050565b8273ffffffffffffffffffffffffffffffffffffffff16612d698261142a565b73ffffffffffffffffffffffffffffffffffffffff1614612dbf576040517f08c379a0000000000000000000000000000000000000000000000000000000008152600401612db69061503d565b60405180910390fd5b600073ffffffffffffffffffffffffffffffffffffffff168273ffffffffffffffffffffffffffffffffffffffff161415612e2f576040517f08c379a0000000000000000000000000000000000000000000000000000000008152600401612e2690614ebd565b60405180910390fd5b612e3a8383836134c2565b612e45600082612bb2565b6001600360008573ffffffffffffffffffffffffffffffffffffffff1673ffffffffffffffffffffffffffffffffffffffff1681526020019081526020016000206000828254612e959190615358565b925050819055506001600360008473ffffffffffffffffffffffffffffffffffffffff1673ffffffffffffffffffffffffffffffffffffffff1681526020019081526020016000206000828254612eec9190615277565b92505081905550816002600083815260200190815260200160002060006101000a81548173ffffffffffffffffffffffffffffffffffffffff021916908373ffffffffffffffffffffffffffffffffffffffff160217905550808273ffffffffffffffffffffffffffffffffffffffff168473ffffffffffffffffffffffffffffffffffffffff167fddf252ad1be2c89b69c2b068fc378daa952ba7f163c4a11628f55a4df523b3ef60405160405180910390a4505050565b60008183612fb391906152fe565b905092915050565b60008183612fc99190615277565b905092915050565b60008082905060005b855181101561309f57600086828151811061301e577f4e487b7100000000000000000000000000000000000000000000000000000000600052603260045260246000fd5b6020026020010151905080831161305f578281604051602001613042929190614cae565b60405160208183030381529060405280519060200120925061308b565b8083604051602001613072929190614cae565b6040516020818303038152906040528051906020012092505b5080806130979061547e565b915050612fda565b508381149150509392505050565b6130c78282604051806020016040528060008152506135d6565b5050565b600081836130d99190615358565b905092915050565b600081836130ef91906152cd565b905092915050565b613102848484612d49565b61310e84848484613631565b61314d576040517f08c379a000000000000000000000000000000000000000000000000000000000815260040161314490614dfd565b60405180910390fd5b50505050565b6060601e80546131629061544c565b80601f016020809104026020016040519081016040528092919081815260200182805461318e9061544c565b80156131db5780601f106131b0576101008083540402835291602001916131db565b820191906000526020600020905b8154815290600101906020018083116131be57829003601f168201915b5050505050905090565b6060600082141561322d576040518060400160405280600181526020017f3000000000000000000000000000000000000000000000000000000000000000815250905061338d565b600082905060005b6000821461325f5780806132489061547e565b915050600a8261325891906152cd565b9150613235565b60008167ffffffffffffffff8111156132a1577f4e487b7100000000000000000000000000000000000000000000000000000000600052604160045260246000fd5b6040519080825280601f01601f1916602001820160405280156132d35781602001600182028036833780820191505090505b5090505b60008514613386576001826132ec9190615358565b9150600a856132fb91906154d1565b60306133079190615277565b60f81b818381518110613343577f4e487b7100000000000000000000000000000000000000000000000000000000600052603260045260246000fd5b60200101907effffffffffffffffffffffffffffffffffffffffffffffffffffffffffffff1916908160001a905350600a8561337f91906152cd565b94506132d7565b8093505050505b919050565b6000600a60009054906101000a900473ffffffffffffffffffffffffffffffffffffffff16905081600a60006101000a81548173ffffffffffffffffffffffffffffffffffffffff021916908373ffffffffffffffffffffffffffffffffffffffff1602179055508173ffffffffffffffffffffffffffffffffffffffff168173ffffffffffffffffffffffffffffffffffffffff167f8be0079c531659141344cd1fd0a4f28419497f9722a3daafe3b4186f6b6457e060405160405180910390a35050565b60007f01ffc9a7000000000000000000000000000000000000000000000000000000007bffffffffffffffffffffffffffffffffffffffffffffffffffffffff1916827bffffffffffffffffffffffffffffffffffffffffffffffffffffffff1916149050919050565b6134cd8383836137c8565b600073ffffffffffffffffffffffffffffffffffffffff168373ffffffffffffffffffffffffffffffffffffffff1614156135105761350b816137cd565b61354f565b8173ffffffffffffffffffffffffffffffffffffffff168373ffffffffffffffffffffffffffffffffffffffff161461354e5761354d8382613816565b5b5b600073ffffffffffffffffffffffffffffffffffffffff168273ffffffffffffffffffffffffffffffffffffffff1614156135925761358d81613983565b6135d1565b8273ffffffffffffffffffffffffffffffffffffffff168273ffffffffffffffffffffffffffffffffffffffff16146135d0576135cf8282613ac6565b5b5b505050565b6135e08383613b45565b6135ed6000848484613631565b61362c576040517f08c379a000000000000000000000000000000000000000000000000000000000815260040161362390614dfd565b60405180910390fd5b505050565b60006136528473ffffffffffffffffffffffffffffffffffffffff16613d13565b156137bb578373ffffffffffffffffffffffffffffffffffffffff1663150b7a0261367b612baa565b8786866040518563ffffffff1660e01b815260040161369d9493929190614d39565b602060405180830381600087803b1580156136b757600080fd5b505af19250505080156136e857506040513d601f19601f820116820180604052508101906136e59190614131565b60015b61376b573d8060008114613718576040519150601f19603f3d011682016040523d82523d6000602084013e61371d565b606091505b50600081511415613763576040517f08c379a000000000000000000000000000000000000000000000000000000000815260040161375a90614dfd565b60405180910390fd5b805181602001fd5b63150b7a0260e01b7bffffffffffffffffffffffffffffffffffffffffffffffffffffffff1916817bffffffffffffffffffffffffffffffffffffffffffffffffffffffff1916149150506137c0565b600190505b949350505050565b505050565b6008805490506009600083815260200190815260200160002081905550600881908060018154018082558091505060019003906000526020600020016000909190919091505550565b60006001613823846114dc565b61382d9190615358565b9050600060076000848152602001908152602001600020549050818114613912576000600660008673ffffffffffffffffffffffffffffffffffffffff1673ffffffffffffffffffffffffffffffffffffffff168152602001908152602001600020600084815260200190815260200160002054905080600660008773ffffffffffffffffffffffffffffffffffffffff1673ffffffffffffffffffffffffffffffffffffffff168152602001908152602001600020600084815260200190815260200160002081905550816007600083815260200190815260200160002081905550505b6007600084815260200190815260200160002060009055600660008573ffffffffffffffffffffffffffffffffffffffff1673ffffffffffffffffffffffffffffffffffffffff16815260200190815260200160002060008381526020019081526020016000206000905550505050565b600060016008805490506139979190615358565b90506000600960008481526020019081526020016000205490506000600883815481106139ed577f4e487b7100000000000000000000000000000000000000000000000000000000600052603260045260246000fd5b906000526020600020015490508060088381548110613a35577f4e487b7100000000000000000000000000000000000000000000000000000000600052603260045260246000fd5b906000526020600020018190555081600960008381526020019081526020016000208190555060096000858152602001908152602001600020600090556008805480613aaa577f4e487b7100000000000000000000000000000000000000000000000000000000600052603160045260246000fd5b6001900381819060005260206000200160009055905550505050565b6000613ad1836114dc565b905081600660008573ffffffffffffffffffffffffffffffffffffffff1673ffffffffffffffffffffffffffffffffffffffff168152602001908152602001600020600083815260200190815260200160002081905550806007600084815260200190815260200160002081905550505050565b600073ffffffffffffffffffffffffffffffffffffffff168273ffffffffffffffffffffffffffffffffffffffff161415613bb5576040517f08c379a0000000000000000000000000000000000000000000000000000000008152600401613bac90614fbd565b60405180910390fd5b613bbe81612b3e565b15613bfe576040517f08c379a0000000000000000000000000000000000000000000000000000000008152600401613bf590614e5d565b60405180910390fd5b613c0a600083836134c2565b6001600360008473ffffffffffffffffffffffffffffffffffffffff1673ffffffffffffffffffffffffffffffffffffffff1681526020019081526020016000206000828254613c5a9190615277565b92505081905550816002600083815260200190815260200160002060006101000a81548173ffffffffffffffffffffffffffffffffffffffff021916908373ffffffffffffffffffffffffffffffffffffffff160217905550808273ffffffffffffffffffffffffffffffffffffffff16600073ffffffffffffffffffffffffffffffffffffffff167fddf252ad1be2c89b69c2b068fc378daa952ba7f163c4a11628f55a4df523b3ef60405160405180910390a45050565b600080823b905060008111915050919050565b828054613d329061544c565b90600052602060002090601f016020900481019282613d545760008555613d9b565b82601f10613d6d57805160ff1916838001178555613d9b565b82800160010185558215613d9b579182015b82811115613d9a578251825591602001919060010190613d7f565b5b509050613da89190613dac565b5090565b5b80821115613dc5576000816000905550600101613dad565b5090565b6000613ddc613dd7846151c9565b615198565b905082815260208101848484011115613df457600080fd5b613dff84828561540a565b509392505050565b6000613e1a613e15846151f9565b615198565b905082815260208101848484011115613e3257600080fd5b613e3d84828561540a565b509392505050565b600081359050613e54816155cf565b92915050565b60008083601f840112613e6c57600080fd5b8235905067ffffffffffffffff811115613e8557600080fd5b602083019150836020820283011115613e9d57600080fd5b9250929050565b600081359050613eb3816155e6565b92915050565b600081359050613ec8816155fd565b92915050565b600081359050613edd81615614565b92915050565b600081519050613ef281615614565b92915050565b600082601f830112613f0957600080fd5b8135613f19848260208601613dc9565b91505092915050565b600082601f830112613f3357600080fd5b8135613f43848260208601613e07565b91505092915050565b600081359050613f5b8161562b565b92915050565b600060208284031215613f7357600080fd5b6000613f8184828501613e45565b91505092915050565b60008060408385031215613f9d57600080fd5b6000613fab85828601613e45565b9250506020613fbc85828601613e45565b9150509250929050565b600080600060608486031215613fdb57600080fd5b6000613fe986828701613e45565b9350506020613ffa86828701613e45565b925050604061400b86828701613f4c565b9150509250925092565b6000806000806080858703121561402b57600080fd5b600061403987828801613e45565b945050602061404a87828801613e45565b935050604061405b87828801613f4c565b925050606085013567ffffffffffffffff81111561407857600080fd5b61408487828801613ef8565b91505092959194509250565b600080604083850312156140a357600080fd5b60006140b185828601613e45565b92505060206140c285828601613ea4565b9150509250929050565b600080604083850312156140df57600080fd5b60006140ed85828601613e45565b92505060206140fe85828601613f4c565b9150509250929050565b60006020828403121561411a57600080fd5b600061412884828501613ece565b91505092915050565b60006020828403121561414357600080fd5b600061415184828501613ee3565b91505092915050565b60006020828403121561416c57600080fd5b600082013567ffffffffffffffff81111561418657600080fd5b61419284828501613f22565b91505092915050565b6000602082840312156141ad57600080fd5b60006141bb84828501613f4c565b91505092915050565b600080600080606085870312156141da57600080fd5b60006141e887828801613f4c565b945050602085013567ffffffffffffffff81111561420557600080fd5b61421187828801613e5a565b9350935050604061422487828801613eb9565b91505092959194509250565b6142398161538c565b82525050565b6142488161539e565b82525050565b614257816153aa565b82525050565b61426e614269826153aa565b6154c7565b82525050565b600061427f82615229565b614289818561523f565b9350614299818560208601615419565b6142a2816155be565b840191505092915050565b60006142b882615234565b6142c2818561525b565b93506142d2818560208601615419565b6142db816155be565b840191505092915050565b60006142f182615234565b6142fb818561526c565b935061430b818560208601615419565b80840191505092915050565b6000614324600e8361525b565b91507f31302070545820616c6c6f7765640000000000000000000000000000000000006000830152602082019050919050565b600061436460328361525b565b91507f4552433732313a207472616e7366657220746f206e6f6e20455243373231526560008301527f63656976657220696d706c656d656e74657200000000000000000000000000006020830152604082019050919050565b60006143ca600e8361525b565b91507f4d617820705720726561636865640000000000000000000000000000000000006000830152602082019050919050565b600061440a60268361525b565b91507f4f776e61626c653a206e6577206f776e657220697320746865207a65726f206160008301527f64647265737300000000000000000000000000000000000000000000000000006020830152604082019050919050565b6000614470601c8361525b565b91507f4552433732313a20746f6b656e20616c7265616479206d696e746564000000006000830152602082019050919050565b60006144b060198361525b565b91507f57686974656c6973742073616c65206e6f7420616374697665000000000000006000830152602082019050919050565b60006144f0600a8361525b565b91507f4e6f2062616c616e6365000000000000000000000000000000000000000000006000830152602082019050919050565b600061453060248361525b565b91507f4552433732313a207472616e7366657220746f20746865207a65726f2061646460008301527f72657373000000000000000000000000000000000000000000000000000000006020830152604082019050919050565b600061459660198361525b565b91507f4552433732313a20617070726f766520746f2063616c6c6572000000000000006000830152602082019050919050565b60006145d6602c8361525b565b91507f4552433732313a206f70657261746f7220717565727920666f72206e6f6e657860008301527f697374656e7420746f6b656e00000000000000000000000000000000000000006020830152604082019050919050565b600061463c600f8361525b565b91507f53616c65206e6f742061637469766500000000000000000000000000000000006000830152602082019050919050565b600061467c60388361525b565b91507f4552433732313a20617070726f76652063616c6c6572206973206e6f74206f7760008301527f6e6572206e6f7220617070726f76656420666f7220616c6c00000000000000006020830152604082019050919050565b60006146e2602a8361525b565b91507f4552433732313a2062616c616e636520717565727920666f7220746865207a6560008301527f726f2061646472657373000000000000000000000000000000000000000000006020830152604082019050919050565b600061474860298361525b565b91507f4552433732313a206f776e657220717565727920666f72206e6f6e657869737460008301527f656e7420746f6b656e00000000000000000000000000000000000000000000006020830152604082019050919050565b60006147ae600e8361525b565b91507f32302070545820616c6c6f7765640000000000000000000000000000000000006000830152602082019050919050565b60006147ee60208361525b565b91507f4552433732313a206d696e7420746f20746865207a65726f20616464726573736000830152602082019050919050565b600061482e602c8361525b565b91507f4552433732313a20617070726f76656420717565727920666f72206e6f6e657860008301527f697374656e7420746f6b656e00000000000000000000000000000000000000006020830152604082019050919050565b600061489460058361526c565b91507f2e6a736f6e0000000000000000000000000000000000000000000000000000006000830152600582019050919050565b60006148d460208361525b565b91507f4f776e61626c653a2063616c6c6572206973206e6f7420746865206f776e65726000830152602082019050919050565b6000614914600b8361525b565b91507f436865636b2070726f6f660000000000000000000000000000000000000000006000830152602082019050919050565b600061495460298361525b565b91507f4552433732313a207472616e73666572206f6620746f6b656e2074686174206960008301527f73206e6f74206f776e00000000000000000000000000000000000000000000006020830152604082019050919050565b60006149ba602f8361525b565b91507f4552433732314d657461646174613a2055524920717565727920666f72206e6f60008301527f6e6578697374656e7420746f6b656e00000000000000000000000000000000006020830152604082019050919050565b6000614a2060128361525b565b91507f4e6f7420656e6f756768207265736572766500000000000000000000000000006000830152602082019050919050565b6000614a6060218361525b565b91507f4552433732313a20617070726f76616c20746f2063757272656e74206f776e6560008301527f72000000000000000000000000000000000000000000000000000000000000006020830152604082019050919050565b6000614ac6600083615250565b9150600082019050919050565b6000614ae060318361525b565b91507f4552433732313a207472616e736665722063616c6c6572206973206e6f74206f60008301527f776e6572206e6f7220617070726f7665640000000000000000000000000000006020830152604082019050919050565b6000614b46601b8361525b565b91507f4d61782077686974656c697374206d696e7473207265616368656400000000006000830152602082019050919050565b6000614b86602c8361525b565b91507f455243373231456e756d657261626c653a20676c6f62616c20696e646578206f60008301527f7574206f6620626f756e647300000000000000000000000000000000000000006020830152604082019050919050565b6000614bec60098361525b565b91507f436865636b2045544800000000000000000000000000000000000000000000006000830152602082019050919050565b6000614c2c60118361525b565b91507f5769746864726177616c206661696c65640000000000000000000000000000006000830152602082019050919050565b6000614c6c600e8361525b565b91507f4e6f7420617574686f72697a65640000000000000000000000000000000000006000830152602082019050919050565b614ca881615400565b82525050565b6000614cba828561425d565b602082019150614cca828461425d565b6020820191508190509392505050565b6000614ce682856142e6565b9150614cf282846142e6565b9150614cfd82614887565b91508190509392505050565b6000614d1482614ab9565b9150819050919050565b6000602082019050614d336000830184614230565b92915050565b6000608082019050614d4e6000830187614230565b614d5b6020830186614230565b614d686040830185614c9f565b8181036060830152614d7a8184614274565b905095945050505050565b6000602082019050614d9a600083018461423f565b92915050565b6000602082019050614db5600083018461424e565b92915050565b60006020820190508181036000830152614dd581846142ad565b905092915050565b60006020820190508181036000830152614df681614317565b9050919050565b60006020820190508181036000830152614e1681614357565b9050919050565b60006020820190508181036000830152614e36816143bd565b9050919050565b60006020820190508181036000830152614e56816143fd565b9050919050565b60006020820190508181036000830152614e7681614463565b9050919050565b60006020820190508181036000830152614e96816144a3565b9050919050565b60006020820190508181036000830152614eb6816144e3565b9050919050565b60006020820190508181036000830152614ed681614523565b9050919050565b60006020820190508181036000830152614ef681614589565b9050919050565b60006020820190508181036000830152614f16816145c9565b9050919050565b60006020820190508181036000830152614f368161462f565b9050919050565b60006020820190508181036000830152614f568161466f565b9050919050565b60006020820190508181036000830152614f76816146d5565b9050919050565b60006020820190508181036000830152614f968161473b565b9050919050565b60006020820190508181036000830152614fb6816147a1565b9050919050565b60006020820190508181036000830152614fd6816147e1565b9050919050565b60006020820190508181036000830152614ff681614821565b9050919050565b60006020820190508181036000830152615016816148c7565b9050919050565b6000602082019050818103600083015261503681614907565b9050919050565b6000602082019050818103600083015261505681614947565b9050919050565b60006020820190508181036000830152615076816149ad565b9050919050565b6000602082019050818103600083015261509681614a13565b9050919050565b600060208201905081810360008301526150b681614a53565b9050919050565b600060208201905081810360008301526150d681614ad3565b9050919050565b600060208201905081810360008301526150f681614b39565b9050919050565b6000602082019050818103600083015261511681614b79565b9050919050565b6000602082019050818103600083015261513681614bdf565b9050919050565b6000602082019050818103600083015261515681614c1f565b9050919050565b6000602082019050818103600083015261517681614c5f565b9050919050565b60006020820190506151926000830184614c9f565b92915050565b6000604051905081810181811067ffffffffffffffff821117156151bf576151be61558f565b5b8060405250919050565b600067ffffffffffffffff8211156151e4576151e361558f565b5b601f19601f8301169050602081019050919050565b600067ffffffffffffffff8211156152145761521361558f565b5b601f19601f8301169050602081019050919050565b600081519050919050565b600081519050919050565b600082825260208201905092915050565b600081905092915050565b600082825260208201905092915050565b600081905092915050565b600061528282615400565b915061528d83615400565b9250827fffffffffffffffffffffffffffffffffffffffffffffffffffffffffffffffff038211156152c2576152c1615502565b5b828201905092915050565b60006152d882615400565b91506152e383615400565b9250826152f3576152f2615531565b5b828204905092915050565b600061530982615400565b915061531483615400565b9250817fffffffffffffffffffffffffffffffffffffffffffffffffffffffffffffffff048311821515161561534d5761534c615502565b5b828202905092915050565b600061536382615400565b915061536e83615400565b92508282101561538157615380615502565b5b828203905092915050565b6000615397826153e0565b9050919050565b60008115159050919050565b6000819050919050565b60007fffffffff0000000000000000000000000000000000000000000000000000000082169050919050565b600073ffffffffffffffffffffffffffffffffffffffff82169050919050565b6000819050919050565b82818337600083830152505050565b60005b8381101561543757808201518184015260208101905061541c565b83811115615446576000848401525b50505050565b6000600282049050600182168061546457607f821691505b6020821081141561547857615477615560565b5b50919050565b600061548982615400565b91507fffffffffffffffffffffffffffffffffffffffffffffffffffffffffffffffff8214156154bc576154bb615502565b5b600182019050919050565b6000819050919050565b60006154dc82615400565b91506154e783615400565b9250826154f7576154f6615531565b5b828206905092915050565b7f4e487b7100000000000000000000000000000000000000000000000000000000600052601160045260246000fd5b7f4e487b7100000000000000000000000000000000000000000000000000000000600052601260045260246000fd5b7f4e487b7100000000000000000000000000000000000000000000000000000000600052602260045260246000fd5b7f4e487b7100000000000000000000000000000000000000000000000000000000600052604160045260246000fd5b6000601f19601f8301169050919050565b6155d88161538c565b81146155e357600080fd5b50565b6155ef8161539e565b81146155fa57600080fd5b50565b615606816153aa565b811461561157600080fd5b50565b61561d816153b4565b811461562857600080fd5b50565b61563481615400565b811461563f57600080fd5b5056fea2646970667358221220ced3febd41928fef11b3d8844570538948f5bde9521970cbfa4a4d4d06f07a3864736f6c63430008000033",
  "immutableReferences": {},
  "source": "/**\n *Submitted for verification at Etherscan.io on 2022-02-04\n*/\n\n// SPDX-License-Identifier: MIT\n\n// File: @openzeppelin/contracts/utils/cryptography/MerkleProof.sol\n\npragma solidity ^0.8.0;\n\n/**\n * @dev These functions deal with verification of Merkle Trees proofs.\n *\n * The proofs can be generated using the JavaScript library\n * https://github.com/miguelmota/merkletreejs[merkletreejs].\n * Note: the hashing algorithm should be keccak256 and pair sorting should be enabled.\n *\n * See `test/utils/cryptography/MerkleProof.test.js` for some examples.\n */\nlibrary MerkleProof {\n    /**\n     * @dev Returns true if a `leaf` can be proved to be a part of a Merkle tree\n     * defined by `root`. For this, a `proof` must be provided, containing\n     * sibling hashes on the branch from the leaf to the root of the tree. Each\n     * pair of leaves and each pair of pre-images are assumed to be sorted.\n     */\n    function verify(\n        bytes32[] memory proof,\n        bytes32 root,\n        bytes32 leaf\n    ) internal pure returns (bool) {\n        bytes32 computedHash = leaf;\n\n        for (uint256 i = 0; i < proof.length; i++) {\n            bytes32 proofElement = proof[i];\n\n            if (computedHash <= proofElement) {\n                // Hash(current computed hash + current element of the proof)\n                computedHash = keccak256(abi.encodePacked(computedHash, proofElement));\n            } else {\n                // Hash(current element of the proof + current computed hash)\n                computedHash = keccak256(abi.encodePacked(proofElement, computedHash));\n            }\n        }\n\n        // Check if the computed hash (root) is equal to the provided root\n        return computedHash == root;\n    }\n}\n\n// File: @openzeppelin/contracts/utils/Counters.sol\n\n\n\npragma solidity ^0.8.0;\n\n/**\n * @title Counters\n * @author Matt Condon (@shrugs)\n * @dev Provides counters that can only be incremented, decremented or reset. This can be used e.g. to track the number\n * of elements in a mapping, issuing ERC721 ids, or counting request ids.\n *\n * Include with `using Counters for Counters.Counter;`\n */\nlibrary Counters {\n    struct Counter {\n        // This variable should never be directly accessed by users of the library: interactions must be restricted to\n        // the library's function. As of Solidity v0.5.2, this cannot be enforced, though there is a proposal to add\n        // this feature: see https://github.com/ethereum/solidity/issues/4637\n        uint256 _value; // default: 0\n    }\n\n    function current(Counter storage counter) internal view returns (uint256) {\n        return counter._value;\n    }\n\n    function increment(Counter storage counter) internal {\n        unchecked {\n            counter._value += 1;\n        }\n    }\n\n    function decrement(Counter storage counter) internal {\n        uint256 value = counter._value;\n        require(value > 0, \"Counter: decrement overflow\");\n        unchecked {\n            counter._value = value - 1;\n        }\n    }\n\n    function reset(Counter storage counter) internal {\n        counter._value = 0;\n    }\n}\n\n// File: @openzeppelin/contracts/utils/math/SafeMath.sol\n\npragma solidity ^0.8.0;\n\n// CAUTION\n// This version of SafeMath should only be used with Solidity 0.8 or later,\n// because it relies on the compiler's built in overflow checks.\n\n/**\n * @dev Wrappers over Solidity's arithmetic operations.\n *\n * NOTE: `SafeMath` is no longer needed starting with Solidity 0.8. The compiler\n * now has built in overflow checking.\n */\nlibrary SafeMath {\n    /**\n     * @dev Returns the addition of two unsigned integers, with an overflow flag.\n     *\n     * _Available since v3.4._\n     */\n    function tryAdd(uint256 a, uint256 b) internal pure returns (bool, uint256) {\n        unchecked {\n            uint256 c = a + b;\n            if (c < a) return (false, 0);\n            return (true, c);\n        }\n    }\n\n    /**\n     * @dev Returns the substraction of two unsigned integers, with an overflow flag.\n     *\n     * _Available since v3.4._\n     */\n    function trySub(uint256 a, uint256 b) internal pure returns (bool, uint256) {\n        unchecked {\n            if (b > a) return (false, 0);\n            return (true, a - b);\n        }\n    }\n\n    /**\n     * @dev Returns the multiplication of two unsigned integers, with an overflow flag.\n     *\n     * _Available since v3.4._\n     */\n    function tryMul(uint256 a, uint256 b) internal pure returns (bool, uint256) {\n        unchecked {\n            // Gas optimization: this is cheaper than requiring 'a' not being zero, but the\n            // benefit is lost if 'b' is also tested.\n            // See: https://github.com/OpenZeppelin/openzeppelin-contracts/pull/522\n            if (a == 0) return (true, 0);\n            uint256 c = a * b;\n            if (c / a != b) return (false, 0);\n            return (true, c);\n        }\n    }\n\n    /**\n     * @dev Returns the division of two unsigned integers, with a division by zero flag.\n     *\n     * _Available since v3.4._\n     */\n    function tryDiv(uint256 a, uint256 b) internal pure returns (bool, uint256) {\n        unchecked {\n            if (b == 0) return (false, 0);\n            return (true, a / b);\n        }\n    }\n\n    /**\n     * @dev Returns the remainder of dividing two unsigned integers, with a division by zero flag.\n     *\n     * _Available since v3.4._\n     */\n    function tryMod(uint256 a, uint256 b) internal pure returns (bool, uint256) {\n        unchecked {\n            if (b == 0) return (false, 0);\n            return (true, a % b);\n        }\n    }\n\n    /**\n     * @dev Returns the addition of two unsigned integers, reverting on\n     * overflow.\n     *\n     * Counterpart to Solidity's `+` operator.\n     *\n     * Requirements:\n     *\n     * - Addition cannot overflow.\n     */\n    function add(uint256 a, uint256 b) internal pure returns (uint256) {\n        return a + b;\n    }\n\n    /**\n     * @dev Returns the subtraction of two unsigned integers, reverting on\n     * overflow (when the result is negative).\n     *\n     * Counterpart to Solidity's `-` operator.\n     *\n     * Requirements:\n     *\n     * - Subtraction cannot overflow.\n     */\n    function sub(uint256 a, uint256 b) internal pure returns (uint256) {\n        return a - b;\n    }\n\n    /**\n     * @dev Returns the multiplication of two unsigned integers, reverting on\n     * overflow.\n     *\n     * Counterpart to Solidity's `*` operator.\n     *\n     * Requirements:\n     *\n     * - Multiplication cannot overflow.\n     */\n    function mul(uint256 a, uint256 b) internal pure returns (uint256) {\n        return a * b;\n    }\n\n    /**\n     * @dev Returns the integer division of two unsigned integers, reverting on\n     * division by zero. The result is rounded towards zero.\n     *\n     * Counterpart to Solidity's `/` operator.\n     *\n     * Requirements:\n     *\n     * - The divisor cannot be zero.\n     */\n    function div(uint256 a, uint256 b) internal pure returns (uint256) {\n        return a / b;\n    }\n\n    /**\n     * @dev Returns the remainder of dividing two unsigned integers. (unsigned integer modulo),\n     * reverting when dividing by zero.\n     *\n     * Counterpart to Solidity's `%` operator. This function uses a `revert`\n     * opcode (which leaves remaining gas untouched) while Solidity uses an\n     * invalid opcode to revert (consuming all remaining gas).\n     *\n     * Requirements:\n     *\n     * - The divisor cannot be zero.\n     */\n    function mod(uint256 a, uint256 b) internal pure returns (uint256) {\n        return a % b;\n    }\n\n    /**\n     * @dev Returns the subtraction of two unsigned integers, reverting with custom message on\n     * overflow (when the result is negative).\n     *\n     * CAUTION: This function is deprecated because it requires allocating memory for the error\n     * message unnecessarily. For custom revert reasons use {trySub}.\n     *\n     * Counterpart to Solidity's `-` operator.\n     *\n     * Requirements:\n     *\n     * - Subtraction cannot overflow.\n     */\n    function sub(\n        uint256 a,\n        uint256 b,\n        string memory errorMessage\n    ) internal pure returns (uint256) {\n        unchecked {\n            require(b <= a, errorMessage);\n            return a - b;\n        }\n    }\n\n    /**\n     * @dev Returns the integer division of two unsigned integers, reverting with custom message on\n     * division by zero. The result is rounded towards zero.\n     *\n     * Counterpart to Solidity's `/` operator. Note: this function uses a\n     * `revert` opcode (which leaves remaining gas untouched) while Solidity\n     * uses an invalid opcode to revert (consuming all remaining gas).\n     *\n     * Requirements:\n     *\n     * - The divisor cannot be zero.\n     */\n    function div(\n        uint256 a,\n        uint256 b,\n        string memory errorMessage\n    ) internal pure returns (uint256) {\n        unchecked {\n            require(b > 0, errorMessage);\n            return a / b;\n        }\n    }\n\n    /**\n     * @dev Returns the remainder of dividing two unsigned integers. (unsigned integer modulo),\n     * reverting with custom message when dividing by zero.\n     *\n     * CAUTION: This function is deprecated because it requires allocating memory for the error\n     * message unnecessarily. For custom revert reasons use {tryMod}.\n     *\n     * Counterpart to Solidity's `%` operator. This function uses a `revert`\n     * opcode (which leaves remaining gas untouched) while Solidity uses an\n     * invalid opcode to revert (consuming all remaining gas).\n     *\n     * Requirements:\n     *\n     * - The divisor cannot be zero.\n     */\n    function mod(\n        uint256 a,\n        uint256 b,\n        string memory errorMessage\n    ) internal pure returns (uint256) {\n        unchecked {\n            require(b > 0, errorMessage);\n            return a % b;\n        }\n    }\n}\n\n// File: @openzeppelin/contracts/utils/Strings.sol\n\npragma solidity ^0.8.0;\n\n/**\n * @dev String operations.\n */\nlibrary Strings {\n    bytes16 private constant _HEX_SYMBOLS = \"0123456789abcdef\";\n\n    /**\n     * @dev Converts a `uint256` to its ASCII `string` decimal representation.\n     */\n    function toString(uint256 value) internal pure returns (string memory) {\n        // Inspired by OraclizeAPI's implementation - MIT licence\n        // https://github.com/oraclize/ethereum-api/blob/b42146b063c7d6ee1358846c198246239e9360e8/oraclizeAPI_0.4.25.sol\n\n        if (value == 0) {\n            return \"0\";\n        }\n        uint256 temp = value;\n        uint256 digits;\n        while (temp != 0) {\n            digits++;\n            temp /= 10;\n        }\n        bytes memory buffer = new bytes(digits);\n        while (value != 0) {\n            digits -= 1;\n            buffer[digits] = bytes1(uint8(48 + uint256(value % 10)));\n            value /= 10;\n        }\n        return string(buffer);\n    }\n\n    /**\n     * @dev Converts a `uint256` to its ASCII `string` hexadecimal representation.\n     */\n    function toHexString(uint256 value) internal pure returns (string memory) {\n        if (value == 0) {\n            return \"0x00\";\n        }\n        uint256 temp = value;\n        uint256 length = 0;\n        while (temp != 0) {\n            length++;\n            temp >>= 8;\n        }\n        return toHexString(value, length);\n    }\n\n    /**\n     * @dev Converts a `uint256` to its ASCII `string` hexadecimal representation with fixed length.\n     */\n    function toHexString(uint256 value, uint256 length) internal pure returns (string memory) {\n        bytes memory buffer = new bytes(2 * length + 2);\n        buffer[0] = \"0\";\n        buffer[1] = \"x\";\n        for (uint256 i = 2 * length + 1; i > 1; --i) {\n            buffer[i] = _HEX_SYMBOLS[value & 0xf];\n            value >>= 4;\n        }\n        require(value == 0, \"Strings: hex length insufficient\");\n        return string(buffer);\n    }\n}\n\n// File: @openzeppelin/contracts/utils/Context.sol\n\npragma solidity ^0.8.0;\n\n/**\n * @dev Provides information about the current execution context, including the\n * sender of the transaction and its data. While these are generally available\n * via msg.sender and msg.data, they should not be accessed in such a direct\n * manner, since when dealing with meta-transactions the account sending and\n * paying for execution may not be the actual sender (as far as an application\n * is concerned).\n *\n * This contract is only required for intermediate, library-like contracts.\n */\nabstract contract Context {\n    function _msgSender() internal view virtual returns (address) {\n        return msg.sender;\n    }\n\n    function _msgData() internal view virtual returns (bytes calldata) {\n        return msg.data;\n    }\n}\n\n// File: @openzeppelin/contracts/access/Ownable.sol\n\npragma solidity ^0.8.0;\n\n/**\n * @dev Contract module which provides a basic access control mechanism, where\n * there is an account (an owner) that can be granted exclusive access to\n * specific functions.\n *\n * By default, the owner account will be the one that deploys the contract. This\n * can later be changed with {transferOwnership}.\n *\n * This module is used through inheritance. It will make available the modifier\n * `onlyOwner`, which can be applied to your functions to restrict their use to\n * the owner.\n */\nabstract contract Ownable is Context {\n    address private _owner;\n\n    event OwnershipTransferred(address indexed previousOwner, address indexed newOwner);\n\n    /**\n     * @dev Initializes the contract setting the deployer as the initial owner.\n     */\n    constructor() {\n        _setOwner(_msgSender());\n    }\n\n    /**\n     * @dev Returns the address of the current owner.\n     */\n    function owner() public view virtual returns (address) {\n        return _owner;\n    }\n\n    /**\n     * @dev Throws if called by any account other than the owner.\n     */\n    modifier onlyOwner() {\n        require(owner() == _msgSender(), \"Ownable: caller is not the owner\");\n        _;\n    }\n\n    /**\n     * @dev Leaves the contract without owner. It will not be possible to call\n     * `onlyOwner` functions anymore. Can only be called by the current owner.\n     *\n     * NOTE: Renouncing ownership will leave the contract without an owner,\n     * thereby removing any functionality that is only available to the owner.\n     */\n    //function renounceOwnership() public virtual onlyOwner {\n    //    _setOwner(address(0));\n    //}\n\n    /**\n     * @dev Transfers ownership of the contract to a new account (`newOwner`).\n     * Can only be called by the current owner.\n     */\n    function transferOwnership(address newOwner) public virtual onlyOwner {\n        require(newOwner != address(0), \"Ownable: new owner is the zero address\");\n        _setOwner(newOwner);\n    }\n\n    function _setOwner(address newOwner) private {\n        address oldOwner = _owner;\n        _owner = newOwner;\n        emit OwnershipTransferred(oldOwner, newOwner);\n    }\n}\n\n// File: @openzeppelin/contracts/utils/Address.sol\n\npragma solidity ^0.8.0;\n\n/**\n * @dev Collection of functions related to the address type\n */\nlibrary Address {\n    /**\n     * @dev Returns true if `account` is a contract.\n     *\n     * [IMPORTANT]\n     * ====\n     * It is unsafe to assume that an address for which this function returns\n     * false is an externally-owned account (EOA) and not a contract.\n     *\n     * Among others, `isContract` will return false for the following\n     * types of addresses:\n     *\n     *  - an externally-owned account\n     *  - a contract in construction\n     *  - an address where a contract will be created\n     *  - an address where a contract lived, but was destroyed\n     * ====\n     */\n    function isContract(address account) internal view returns (bool) {\n        // This method relies on extcodesize, which returns 0 for contracts in\n        // construction, since the code is only stored at the end of the\n        // constructor execution.\n\n        uint256 size;\n        assembly {\n            size := extcodesize(account)\n        }\n        return size > 0;\n    }\n\n    /**\n     * @dev Replacement for Solidity's `transfer`: sends `amount` wei to\n     * `recipient`, forwarding all available gas and reverting on errors.\n     *\n     * https://eips.ethereum.org/EIPS/eip-1884[EIP1884] increases the gas cost\n     * of certain opcodes, possibly making contracts go over the 2300 gas limit\n     * imposed by `transfer`, making them unable to receive funds via\n     * `transfer`. {sendValue} removes this limitation.\n     *\n     * https://diligence.consensys.net/posts/2019/09/stop-using-soliditys-transfer-now/[Learn more].\n     *\n     * IMPORTANT: because control is transferred to `recipient`, care must be\n     * taken to not create reentrancy vulnerabilities. Consider using\n     * {ReentrancyGuard} or the\n     * https://solidity.readthedocs.io/en/v0.5.11/security-considerations.html#use-the-checks-effects-interactions-pattern[checks-effects-interactions pattern].\n     */\n    function sendValue(address payable recipient, uint256 amount) internal {\n        require(address(this).balance >= amount, \"Address: insufficient balance\");\n\n        (bool success, ) = recipient.call{value: amount}(\"\");\n        require(success, \"Address: unable to send value, recipient may have reverted\");\n    }\n\n    /**\n     * @dev Performs a Solidity function call using a low level `call`. A\n     * plain `call` is an unsafe replacement for a function call: use this\n     * function instead.\n     *\n     * If `target` reverts with a revert reason, it is bubbled up by this\n     * function (like regular Solidity function calls).\n     *\n     * Returns the raw returned data. To convert to the expected return value,\n     * use https://solidity.readthedocs.io/en/latest/units-and-global-variables.html?highlight=abi.decode#abi-encoding-and-decoding-functions[`abi.decode`].\n     *\n     * Requirements:\n     *\n     * - `target` must be a contract.\n     * - calling `target` with `data` must not revert.\n     *\n     * _Available since v3.1._\n     */\n    function functionCall(address target, bytes memory data) internal returns (bytes memory) {\n        return functionCall(target, data, \"Address: low-level call failed\");\n    }\n\n    /**\n     * @dev Same as {xref-Address-functionCall-address-bytes-}[`functionCall`], but with\n     * `errorMessage` as a fallback revert reason when `target` reverts.\n     *\n     * _Available since v3.1._\n     */\n    function functionCall(\n        address target,\n        bytes memory data,\n        string memory errorMessage\n    ) internal returns (bytes memory) {\n        return functionCallWithValue(target, data, 0, errorMessage);\n    }\n\n    /**\n     * @dev Same as {xref-Address-functionCall-address-bytes-}[`functionCall`],\n     * but also transferring `value` wei to `target`.\n     *\n     * Requirements:\n     *\n     * - the calling contract must have an ETH balance of at least `value`.\n     * - the called Solidity function must be `payable`.\n     *\n     * _Available since v3.1._\n     */\n    function functionCallWithValue(\n        address target,\n        bytes memory data,\n        uint256 value\n    ) internal returns (bytes memory) {\n        return functionCallWithValue(target, data, value, \"Address: low-level call with value failed\");\n    }\n\n    /**\n     * @dev Same as {xref-Address-functionCallWithValue-address-bytes-uint256-}[`functionCallWithValue`], but\n     * with `errorMessage` as a fallback revert reason when `target` reverts.\n     *\n     * _Available since v3.1._\n     */\n    function functionCallWithValue(\n        address target,\n        bytes memory data,\n        uint256 value,\n        string memory errorMessage\n    ) internal returns (bytes memory) {\n        require(address(this).balance >= value, \"Address: insufficient balance for call\");\n        require(isContract(target), \"Address: call to non-contract\");\n\n        (bool success, bytes memory returndata) = target.call{value: value}(data);\n        return verifyCallResult(success, returndata, errorMessage);\n    }\n\n    /**\n     * @dev Same as {xref-Address-functionCall-address-bytes-}[`functionCall`],\n     * but performing a static call.\n     *\n     * _Available since v3.3._\n     */\n    function functionStaticCall(address target, bytes memory data) internal view returns (bytes memory) {\n        return functionStaticCall(target, data, \"Address: low-level static call failed\");\n    }\n\n    /**\n     * @dev Same as {xref-Address-functionCall-address-bytes-string-}[`functionCall`],\n     * but performing a static call.\n     *\n     * _Available since v3.3._\n     */\n    function functionStaticCall(\n        address target,\n        bytes memory data,\n        string memory errorMessage\n    ) internal view returns (bytes memory) {\n        require(isContract(target), \"Address: static call to non-contract\");\n\n        (bool success, bytes memory returndata) = target.staticcall(data);\n        return verifyCallResult(success, returndata, errorMessage);\n    }\n\n    /**\n     * @dev Same as {xref-Address-functionCall-address-bytes-}[`functionCall`],\n     * but performing a delegate call.\n     *\n     * _Available since v3.4._\n     */\n    function functionDelegateCall(address target, bytes memory data) internal returns (bytes memory) {\n        return functionDelegateCall(target, data, \"Address: low-level delegate call failed\");\n    }\n\n    /**\n     * @dev Same as {xref-Address-functionCall-address-bytes-string-}[`functionCall`],\n     * but performing a delegate call.\n     *\n     * _Available since v3.4._\n     */\n    function functionDelegateCall(\n        address target,\n        bytes memory data,\n        string memory errorMessage\n    ) internal returns (bytes memory) {\n        require(isContract(target), \"Address: delegate call to non-contract\");\n\n        (bool success, bytes memory returndata) = target.delegatecall(data);\n        return verifyCallResult(success, returndata, errorMessage);\n    }\n\n    /**\n     * @dev Tool to verifies that a low level call was successful, and revert if it wasn't, either by bubbling the\n     * revert reason using the provided one.\n     *\n     * _Available since v4.3._\n     */\n    function verifyCallResult(\n        bool success,\n        bytes memory returndata,\n        string memory errorMessage\n    ) internal pure returns (bytes memory) {\n        if (success) {\n            return returndata;\n        } else {\n            // Look for revert reason and bubble it up if present\n            if (returndata.length > 0) {\n                // The easiest way to bubble the revert reason is using memory via assembly\n\n                assembly {\n                    let returndata_size := mload(returndata)\n                    revert(add(32, returndata), returndata_size)\n                }\n            } else {\n                revert(errorMessage);\n            }\n        }\n    }\n}\n\n// File: @openzeppelin/contracts/token/ERC721/IERC721Receiver.sol\n\npragma solidity ^0.8.0;\n\n/**\n * @title ERC721 token receiver interface\n * @dev Interface for any contract that wants to support safeTransfers\n * from ERC721 asset contracts.\n */\ninterface IERC721Receiver {\n    /**\n     * @dev Whenever an {IERC721} `tokenId` token is transferred to this contract via {IERC721-safeTransferFrom}\n     * by `operator` from `from`, this function is called.\n     *\n     * It must return its Solidity selector to confirm the token transfer.\n     * If any other value is returned or the interface is not implemented by the recipient, the transfer will be reverted.\n     *\n     * The selector can be obtained in Solidity with `IERC721.onERC721Received.selector`.\n     */\n    function onERC721Received(\n        address operator,\n        address from,\n        uint256 tokenId,\n        bytes calldata data\n    ) external returns (bytes4);\n}\n\n// File: @openzeppelin/contracts/utils/introspection/IERC165.sol\n\npragma solidity ^0.8.0;\n\n/**\n * @dev Interface of the ERC165 standard, as defined in the\n * https://eips.ethereum.org/EIPS/eip-165[EIP].\n *\n * Implementers can declare support of contract interfaces, which can then be\n * queried by others ({ERC165Checker}).\n *\n * For an implementation, see {ERC165}.\n */\ninterface IERC165 {\n    /**\n     * @dev Returns true if this contract implements the interface defined by\n     * `interfaceId`. See the corresponding\n     * https://eips.ethereum.org/EIPS/eip-165#how-interfaces-are-identified[EIP section]\n     * to learn more about how these ids are created.\n     *\n     * This function call must use less than 30 000 gas.\n     */\n    function supportsInterface(bytes4 interfaceId) external view returns (bool);\n}\n\n// File: @openzeppelin/contracts/utils/introspection/ERC165.sol\n\npragma solidity ^0.8.0;\n\n/**\n * @dev Implementation of the {IERC165} interface.\n *\n * Contracts that want to implement ERC165 should inherit from this contract and override {supportsInterface} to check\n * for the additional interface id that will be supported. For example:\n *\n * ```solidity\n * function supportsInterface(bytes4 interfaceId) public view virtual override returns (bool) {\n *     return interfaceId == type(MyInterface).interfaceId || super.supportsInterface(interfaceId);\n * }\n * ```\n *\n * Alternatively, {ERC165Storage} provides an easier to use but more expensive implementation.\n */\nabstract contract ERC165 is IERC165 {\n    /**\n     * @dev See {IERC165-supportsInterface}.\n     */\n    function supportsInterface(bytes4 interfaceId) public view virtual override returns (bool) {\n        return interfaceId == type(IERC165).interfaceId;\n    }\n}\n\n// File: @openzeppelin/contracts/token/ERC721/IERC721.sol\n\npragma solidity ^0.8.0;\n\n/**\n * @dev Required interface of an ERC721 compliant contract.\n */\ninterface IERC721 is IERC165 {\n    /**\n     * @dev Emitted when `tokenId` token is transferred from `from` to `to`.\n     */\n    event Transfer(address indexed from, address indexed to, uint256 indexed tokenId);\n\n    /**\n     * @dev Emitted when `owner` enables `approved` to manage the `tokenId` token.\n     */\n    event Approval(address indexed owner, address indexed approved, uint256 indexed tokenId);\n\n    /**\n     * @dev Emitted when `owner` enables or disables (`approved`) `operator` to manage all of its assets.\n     */\n    event ApprovalForAll(address indexed owner, address indexed operator, bool approved);\n\n    /**\n     * @dev Returns the number of tokens in ``owner``'s account.\n     */\n    function balanceOf(address owner) external view returns (uint256 balance);\n\n    /**\n     * @dev Returns the owner of the `tokenId` token.\n     *\n     * Requirements:\n     *\n     * - `tokenId` must exist.\n     */\n    function ownerOf(uint256 tokenId) external view returns (address owner);\n\n    /**\n     * @dev Safely transfers `tokenId` token from `from` to `to`, checking first that contract recipients\n     * are aware of the ERC721 protocol to prevent tokens from being forever locked.\n     *\n     * Requirements:\n     *\n     * - `from` cannot be the zero address.\n     * - `to` cannot be the zero address.\n     * - `tokenId` token must exist and be owned by `from`.\n     * - If the caller is not `from`, it must be have been allowed to move this token by either {approve} or {setApprovalForAll}.\n     * - If `to` refers to a smart contract, it must implement {IERC721Receiver-onERC721Received}, which is called upon a safe transfer.\n     *\n     * Emits a {Transfer} event.\n     */\n    function safeTransferFrom(\n        address from,\n        address to,\n        uint256 tokenId\n    ) external;\n\n    /**\n     * @dev Transfers `tokenId` token from `from` to `to`.\n     *\n     * WARNING: Usage of this method is discouraged, use {safeTransferFrom} whenever possible.\n     *\n     * Requirements:\n     *\n     * - `from` cannot be the zero address.\n     * - `to` cannot be the zero address.\n     * - `tokenId` token must be owned by `from`.\n     * - If the caller is not `from`, it must be approved to move this token by either {approve} or {setApprovalForAll}.\n     *\n     * Emits a {Transfer} event.\n     */\n    function transferFrom(\n        address from,\n        address to,\n        uint256 tokenId\n    ) external;\n\n    /**\n     * @dev Gives permission to `to` to transfer `tokenId` token to another account.\n     * The approval is cleared when the token is transferred.\n     *\n     * Only a single account can be approved at a time, so approving the zero address clears previous approvals.\n     *\n     * Requirements:\n     *\n     * - The caller must own the token or be an approved operator.\n     * - `tokenId` must exist.\n     *\n     * Emits an {Approval} event.\n     */\n    function approve(address to, uint256 tokenId) external;\n\n    /**\n     * @dev Returns the account approved for `tokenId` token.\n     *\n     * Requirements:\n     *\n     * - `tokenId` must exist.\n     */\n    function getApproved(uint256 tokenId) external view returns (address operator);\n\n    /**\n     * @dev Approve or remove `operator` as an operator for the caller.\n     * Operators can call {transferFrom} or {safeTransferFrom} for any token owned by the caller.\n     *\n     * Requirements:\n     *\n     * - The `operator` cannot be the caller.\n     *\n     * Emits an {ApprovalForAll} event.\n     */\n    function setApprovalForAll(address operator, bool _approved) external;\n\n    /**\n     * @dev Returns if the `operator` is allowed to manage all of the assets of `owner`.\n     *\n     * See {setApprovalForAll}\n     */\n    function isApprovedForAll(address owner, address operator) external view returns (bool);\n\n    /**\n     * @dev Safely transfers `tokenId` token from `from` to `to`.\n     *\n     * Requirements:\n     *\n     * - `from` cannot be the zero address.\n     * - `to` cannot be the zero address.\n     * - `tokenId` token must exist and be owned by `from`.\n     * - If the caller is not `from`, it must be approved to move this token by either {approve} or {setApprovalForAll}.\n     * - If `to` refers to a smart contract, it must implement {IERC721Receiver-onERC721Received}, which is called upon a safe transfer.\n     *\n     * Emits a {Transfer} event.\n     */\n    function safeTransferFrom(\n        address from,\n        address to,\n        uint256 tokenId,\n        bytes calldata data\n    ) external;\n}\n\n// File: @openzeppelin/contracts/token/ERC721/extensions/IERC721Enumerable.sol\n\npragma solidity ^0.8.0;\n\n/**\n * @title ERC-721 Non-Fungible Token Standard, optional enumeration extension\n * @dev See https://eips.ethereum.org/EIPS/eip-721\n */\ninterface IERC721Enumerable is IERC721 {\n    /**\n     * @dev Returns the total amount of tokens stored by the contract.\n     */\n    function totalSupply() external view returns (uint256);\n\n    /**\n     * @dev Returns a token ID owned by `owner` at a given `index` of its token list.\n     * Use along with {balanceOf} to enumerate all of ``owner``'s tokens.\n     */\n    //function tokenOfOwnerByIndex(address owner, uint256 index) external view returns (uint256 tokenId);\n\n    /**\n     * @dev Returns a token ID at a given `index` of all the tokens stored by the contract.\n     * Use along with {totalSupply} to enumerate all tokens.\n     */\n    function tokenByIndex(uint256 index) external view returns (uint256);\n}\n\n// File: @openzeppelin/contracts/token/ERC721/extensions/IERC721Metadata.sol\n\npragma solidity ^0.8.0;\n\n/**\n * @title ERC-721 Non-Fungible Token Standard, optional metadata extension\n * @dev See https://eips.ethereum.org/EIPS/eip-721\n */\ninterface IERC721Metadata is IERC721 {\n    /**\n     * @dev Returns the token collection name.\n     */\n    function name() external view returns (string memory);\n\n    /**\n     * @dev Returns the token collection symbol.\n     */\n    function symbol() external view returns (string memory);\n\n    /**\n     * @dev Returns the Uniform Resource Identifier (URI) for `tokenId` token.\n     */\n    function tokenURI(uint256 tokenId) external view returns (string memory);\n}\n\n// File: ERC721.sol\n\npragma solidity ^0.8.0;\n\n/**\n * @dev Implementation of https://eips.ethereum.org/EIPS/eip-721[ERC721] Non-Fungible Token Standard, including\n * the Metadata extension, but not including the Enumerable extension, which is available separately as\n * {ERC721Enumerable}.\n */\ncontract ERC721 is Context, ERC165, IERC721, IERC721Metadata {\n    using Address for address;\n    using Strings for uint256;\n\n    // Token name\n    string private _name;\n\n    // Token symbol\n    string private _symbol;\n\n    // Mapping from token ID to owner address\n    mapping(uint256 => address) private _owners;\n\n    // Mapping owner address to token count\n    mapping(address => uint256) private _balances;\n\n    // Mapping from token ID to approved address\n    mapping(uint256 => address) private _tokenApprovals;\n\n    // Mapping from owner to operator approvals\n    mapping(address => mapping(address => bool)) private _operatorApprovals;\n\n    /**\n     * @dev Initializes the contract by setting a `name` and a `symbol` to the token collection.\n     */\n    constructor(string memory name_, string memory symbol_) {\n        _name = name_;\n        _symbol = symbol_;\n    }\n\n    /**\n     * @dev See {IERC165-supportsInterface}.\n     */\n    function supportsInterface(bytes4 interfaceId) public view virtual override(ERC165, IERC165) returns (bool) {\n        return\n        interfaceId == type(IERC721).interfaceId ||\n        interfaceId == type(IERC721Metadata).interfaceId ||\n        super.supportsInterface(interfaceId);\n    }\n\n    /**\n     * @dev See {IERC721-balanceOf}.\n     */\n    function balanceOf(address owner) public view virtual override returns (uint256) {\n        require(owner != address(0), \"ERC721: balance query for the zero address\");\n        return _balances[owner];\n    }\n\n    /**\n     * @dev See {IERC721-ownerOf}.\n     */\n    function ownerOf(uint256 tokenId) public view virtual override returns (address) {\n        address owner = _owners[tokenId];\n        require(owner != address(0), \"ERC721: owner query for nonexistent token\");\n        return owner;\n    }\n\n    /**\n     * @dev Edit for rawOwnerOf token\n     */\n    function rawOwnerOf(uint256 tokenId) public view returns (address) {\n        return _owners[tokenId];\n    }\n\n    /**\n     * @dev See {IERC721Metadata-name}.\n     */\n    function name() public view virtual override returns (string memory) {\n        return _name;\n    }\n\n    /**\n     * @dev See {IERC721Metadata-symbol}.\n     */\n    function symbol() public view virtual override returns (string memory) {\n        return _symbol;\n    }\n\n    /**\n     * @dev See {IERC721Metadata-tokenURI}.\n     */\n    function tokenURI(uint256 tokenId) public view virtual override returns (string memory) {\n        require(_exists(tokenId), \"ERC721Metadata: URI query for nonexistent token\");\n\n        string memory baseURI = _baseURI();\n        return bytes(baseURI).length > 0 ? string(abi.encodePacked(baseURI, tokenId.toString(),\".json\")) : \"\";\n    }\n\n    /**\n     * @dev Base URI for computing {tokenURI}. If set, the resulting URI for each\n     * token will be the concatenation of the `baseURI` and the `tokenId`. Empty\n     * by default, can be overriden in child contracts.\n     */\n    function _baseURI() internal view virtual returns (string memory) {\n        return \"\";\n    }\n\n    /**\n     * @dev See {IERC721-approve}.\n     */\n    function approve(address to, uint256 tokenId) public virtual override {\n        address owner = ERC721.ownerOf(tokenId);\n        require(to != owner, \"ERC721: approval to current owner\");\n\n        require(\n            _msgSender() == owner || isApprovedForAll(owner, _msgSender()),\n            \"ERC721: approve caller is not owner nor approved for all\"\n        );\n\n        _approve(to, tokenId);\n    }\n\n    /**\n     * @dev See {IERC721-getApproved}.\n     */\n    function getApproved(uint256 tokenId) public view virtual override returns (address) {\n        require(_exists(tokenId), \"ERC721: approved query for nonexistent token\");\n\n        return _tokenApprovals[tokenId];\n    }\n\n    /**\n     * @dev See {IERC721-setApprovalForAll}.\n     */\n    function setApprovalForAll(address operator, bool approved) public virtual override {\n        require(operator != _msgSender(), \"ERC721: approve to caller\");\n\n        _operatorApprovals[_msgSender()][operator] = approved;\n        emit ApprovalForAll(_msgSender(), operator, approved);\n    }\n\n    /**\n     * @dev See {IERC721-isApprovedForAll}.\n     */\n    function isApprovedForAll(address owner, address operator) public view virtual override returns (bool) {\n        return _operatorApprovals[owner][operator];\n    }\n\n    /**\n     * @dev See {IERC721-transferFrom}.\n     */\n    function transferFrom(\n        address from,\n        address to,\n        uint256 tokenId\n    ) public virtual override {\n        //solhint-disable-next-line max-line-length\n        require(_isApprovedOrOwner(_msgSender(), tokenId), \"ERC721: transfer caller is not owner nor approved\");\n\n        _transfer(from, to, tokenId);\n    }\n\n    /**\n     * @dev See {IERC721-safeTransferFrom}.\n     */\n    function safeTransferFrom(\n        address from,\n        address to,\n        uint256 tokenId\n    ) public virtual override {\n        safeTransferFrom(from, to, tokenId, \"\");\n    }\n\n    /**\n     * @dev See {IERC721-safeTransferFrom}.\n     */\n    function safeTransferFrom(\n        address from,\n        address to,\n        uint256 tokenId,\n        bytes memory _data\n    ) public virtual override {\n        require(_isApprovedOrOwner(_msgSender(), tokenId), \"ERC721: transfer caller is not owner nor approved\");\n        _safeTransfer(from, to, tokenId, _data);\n    }\n\n    /**\n     * @dev Safely transfers `tokenId` token from `from` to `to`, checking first that contract recipients\n     * are aware of the ERC721 protocol to prevent tokens from being forever locked.\n     *\n     * `_data` is additional data, it has no specified format and it is sent in call to `to`.\n     *\n     * This internal function is equivalent to {safeTransferFrom}, and can be used to e.g.\n     * implement alternative mechanisms to perform token transfer, such as signature-based.\n     *\n     * Requirements:\n     *\n     * - `from` cannot be the zero address.\n     * - `to` cannot be the zero address.\n     * - `tokenId` token must exist and be owned by `from`.\n     * - If `to` refers to a smart contract, it must implement {IERC721Receiver-onERC721Received}, which is called upon a safe transfer.\n     *\n     * Emits a {Transfer} event.\n     */\n    function _safeTransfer(\n        address from,\n        address to,\n        uint256 tokenId,\n        bytes memory _data\n    ) internal virtual {\n        _transfer(from, to, tokenId);\n        require(_checkOnERC721Received(from, to, tokenId, _data), \"ERC721: transfer to non ERC721Receiver implementer\");\n    }\n\n    /**\n     * @dev Returns whether `tokenId` exists.\n     *\n     * Tokens can be managed by their owner or approved accounts via {approve} or {setApprovalForAll}.\n     *\n     * Tokens start existing when they are minted (`_mint`),\n     * and stop existing when they are burned (`_burn`).\n     */\n    function _exists(uint256 tokenId) internal view virtual returns (bool) {\n        return _owners[tokenId] != address(0);\n    }\n\n    /**\n     * @dev Returns whether `spender` is allowed to manage `tokenId`.\n     *\n     * Requirements:\n     *\n     * - `tokenId` must exist.\n     */\n    function _isApprovedOrOwner(address spender, uint256 tokenId) internal view virtual returns (bool) {\n        require(_exists(tokenId), \"ERC721: operator query for nonexistent token\");\n        address owner = ERC721.ownerOf(tokenId);\n        return (spender == owner || getApproved(tokenId) == spender || isApprovedForAll(owner, spender));\n    }\n\n    /**\n     * Team QaziPolo\n     * @dev Safely mints `tokenId` and transfers it to `to`.\n     *\n     * Requirements:\n     *\n     * - `tokenId` must not exist.\n     * - If `to` refers to a smart contract, it must implement {IERC721Receiver-onERC721Received}, which is called upon a safe transfer.\n     *\n     * Emits a {Transfer} event.\n     */\n    function _safeMint(address to, uint256 tokenId) internal virtual {\n        _safeMint(to, tokenId, \"\");\n    }\n\n    /**\n     * @dev Same as {xref-ERC721-_safeMint-address-uint256-}[`_safeMint`], with an additional `data` parameter which is\n     * forwarded in {IERC721Receiver-onERC721Received} to contract recipients.\n     */\n    function _safeMint(\n        address to,\n        uint256 tokenId,\n        bytes memory _data\n    ) internal virtual {\n        _mint(to, tokenId);\n        require(\n            _checkOnERC721Received(address(0), to, tokenId, _data),\n            \"ERC721: transfer to non ERC721Receiver implementer\"\n        );\n    }\n\n    /**\n     * @dev Mints `tokenId` and transfers it to `to`.\n     *\n     * WARNING: Usage of this method is discouraged, use {_safeMint} whenever possible\n     *\n     * Requirements:\n     *\n     * - `tokenId` must not exist.\n     * - `to` cannot be the zero address.\n     *\n     * Emits a {Transfer} event.\n     */\n    function _mint(address to, uint256 tokenId) internal virtual {\n        require(to != address(0), \"ERC721: mint to the zero address\");\n        require(!_exists(tokenId), \"ERC721: token already minted\");\n\n        _beforeTokenTransfer(address(0), to, tokenId);\n\n        _balances[to] += 1;\n        _owners[tokenId] = to;\n\n        emit Transfer(address(0), to, tokenId);\n    }\n\n    /**\n     * @dev Destroys `tokenId`.\n     * The approval is cleared when the token is burned.\n     *\n     * Requirements:\n     *\n     * - `tokenId` must exist.\n     *\n     * Emits a {Transfer} event.\n     */\n    function _burn(uint256 tokenId) internal virtual {\n        address owner = ERC721.ownerOf(tokenId);\n        address to = address(0);\n\n        _beforeTokenTransfer(owner, to, tokenId);\n\n        // Clear approvals\n        _approve(address(0), tokenId);\n\n        _balances[owner] -= 1;\n        delete _owners[tokenId];\n\n        emit Transfer(owner, to, tokenId);\n    }\n\n    /**\n     * @dev Transfers `tokenId` from `from` to `to`.\n     *  As opposed to {transferFrom}, this imposes no restrictions on msg.sender.\n     *\n     * Requirements:\n     *\n     * - `to` cannot be the zero address.\n     * - `tokenId` token must be owned by `from`.\n     *\n     * Emits a {Transfer} event.\n     */\n    function _transfer(\n        address from,\n        address to,\n        uint256 tokenId\n    ) internal virtual {\n        require(ERC721.ownerOf(tokenId) == from, \"ERC721: transfer of token that is not own\");\n        require(to != address(0), \"ERC721: transfer to the zero address\");\n\n        _beforeTokenTransfer(from, to, tokenId);\n\n        // Clear approvals from the previous owner\n        _approve(address(0), tokenId);\n\n        _balances[from] -= 1;\n        _balances[to] += 1;\n        _owners[tokenId] = to;\n\n        emit Transfer(from, to, tokenId);\n    }\n\n    /**\n     * @dev Approve `to` to operate on `tokenId`\n     *\n     * Emits a {Approval} event.\n     */\n    function _approve(address to, uint256 tokenId) internal virtual {\n        _tokenApprovals[tokenId] = to;\n        emit Approval(ERC721.ownerOf(tokenId), to, tokenId);\n    }\n\n    /**\n     * @dev Internal function to invoke {IERC721Receiver-onERC721Received} on a target address.\n     * The call is not executed if the target address is not a contract.\n     *\n     * @param from address representing the previous owner of the given token ID\n     * @param to target address that will receive the tokens\n     * @param tokenId uint256 ID of the token to be transferred\n     * @param _data bytes optional data to send along with the call\n     * @return bool whether the call correctly returned the expected magic value\n     */\n    function _checkOnERC721Received(\n        address from,\n        address to,\n        uint256 tokenId,\n        bytes memory _data\n    ) private returns (bool) {\n        if (to.isContract()) {\n            try IERC721Receiver(to).onERC721Received(_msgSender(), from, tokenId, _data) returns (bytes4 retval) {\n                return retval == IERC721Receiver(to).onERC721Received.selector;\n            } catch (bytes memory reason) {\n                if (reason.length == 0) {\n                    revert(\"ERC721: transfer to non ERC721Receiver implementer\");\n                } else {\n                    assembly {\n                        revert(add(32, reason), mload(reason))\n                    }\n                }\n            }\n        } else {\n            return true;\n        }\n    }\n\n    /**\n     * @dev Hook that is called before any token transfer. This includes minting\n     * and burning.\n     *\n     * Calling conditions:\n     *\n     * - When `from` and `to` are both non-zero, ``from``'s `tokenId` will be\n     * transferred to `to`.\n     * - When `from` is zero, `tokenId` will be minted for `to`.\n     * - When `to` is zero, ``from``'s `tokenId` will be burned.\n     * - `from` and `to` are never both zero.\n     *\n     * To learn more about hooks, head to xref:ROOT:extending-contracts.adoc#using-hooks[Using Hooks].\n     */\n    function _beforeTokenTransfer(\n        address from,\n        address to,\n        uint256 tokenId\n    ) internal virtual {}\n}\n// File: ERC721Enumerable.sol\n\npragma solidity ^0.8.0;\n\n/**\n * @dev This implements an optional extension of {ERC721} defined in the EIP that adds\n * enumerability of all the token ids in the contract as well as all token ids owned by each\n * account.\n */\nabstract contract ERC721Enumerable is ERC721, IERC721Enumerable {\n    // Mapping from owner to list of owned token IDs\n    mapping(address => mapping(uint256 => uint256)) private _ownedTokens;\n\n    // Mapping from token ID to index of the owner tokens list\n    mapping(uint256 => uint256) private _ownedTokensIndex;\n\n    // Array with all token ids, used for enumeration\n    uint256[] private _allTokens;\n\n    // Mapping from token id to position in the allTokens array\n    mapping(uint256 => uint256) private _allTokensIndex;\n\n    /**\n     * @dev See {IERC165-supportsInterface}.\n     */\n    function supportsInterface(bytes4 interfaceId) public view virtual override(IERC165, ERC721) returns (bool) {\n        return interfaceId == type(IERC721Enumerable).interfaceId || super.supportsInterface(interfaceId);\n    }\n\n    /**\n     * @dev See {IERC721Enumerable-tokenOfOwnerByIndex}.\n     */\n    //function tokenOfOwnerByIndex(address owner, uint256 index) public view virtual override returns (uint256) {\n    //    require(index < ERC721.balanceOf(owner), \"ERC721Enumerable: owner index out of bounds\");\n    //    return _ownedTokens[owner][index];\n    //}\n\n    /**\n     * @dev See {IERC721Enumerable-totalSupply}.\n     */\n    function totalSupply() public view virtual override returns (uint256) {\n        return _allTokens.length;\n    }\n\n    /**\n     * @dev See {IERC721Enumerable-tokenByIndex}.\n     */\n    function tokenByIndex(uint256 index) public view virtual override returns (uint256) {\n        require(index < ERC721Enumerable.totalSupply(), \"ERC721Enumerable: global index out of bounds\");\n        return _allTokens[index];\n    }\n\n    /**\n     * @dev Hook that is called before any token transfer. This includes minting\n     * and burning.\n     *\n     * Calling conditions:\n     *\n     * - When `from` and `to` are both non-zero, ``from``'s `tokenId` will be\n     * transferred to `to`.\n     * - When `from` is zero, `tokenId` will be minted for `to`.\n     * - When `to` is zero, ``from``'s `tokenId` will be burned.\n     * - `from` cannot be the zero address.\n     * - `to` cannot be the zero address.\n     *\n     * To learn more about hooks, head to xref:ROOT:extending-contracts.adoc#using-hooks[Using Hooks].\n     */\n    function _beforeTokenTransfer(\n        address from,\n        address to,\n        uint256 tokenId\n    ) internal virtual override {\n        super._beforeTokenTransfer(from, to, tokenId);\n\n        if (from == address(0)) {\n            _addTokenToAllTokensEnumeration(tokenId);\n        } else if (from != to) {\n            _removeTokenFromOwnerEnumeration(from, tokenId);\n        }\n        if (to == address(0)) {\n            _removeTokenFromAllTokensEnumeration(tokenId);\n        } else if (to != from) {\n            _addTokenToOwnerEnumeration(to, tokenId);\n        }\n    }\n\n    /**\n     * @dev Private function to add a token to this extension's ownership-tracking data structures.\n     * @param to address representing the new owner of the given token ID\n     * @param tokenId uint256 ID of the token to be added to the tokens list of the given address\n     */\n    function _addTokenToOwnerEnumeration(address to, uint256 tokenId) private {\n        uint256 length = ERC721.balanceOf(to);\n        _ownedTokens[to][length] = tokenId;\n        _ownedTokensIndex[tokenId] = length;\n    }\n\n    /**\n     * @dev Private function to add a token to this extension's token tracking data structures.\n     * @param tokenId uint256 ID of the token to be added to the tokens list\n     */\n    function _addTokenToAllTokensEnumeration(uint256 tokenId) private {\n        _allTokensIndex[tokenId] = _allTokens.length;\n        _allTokens.push(tokenId);\n    }\n\n    /**\n     * @dev Private function to remove a token from this extension's ownership-tracking data structures. Note that\n     * while the token is not assigned a new owner, the `_ownedTokensIndex` mapping is _not_ updated: this allows for\n     * gas optimizations e.g. when performing a transfer operation (avoiding double writes).\n     * This has O(1) time complexity, but alters the order of the _ownedTokens array.\n     * @param from address representing the previous owner of the given token ID\n     * @param tokenId uint256 ID of the token to be removed from the tokens list of the given address\n     */\n    function _removeTokenFromOwnerEnumeration(address from, uint256 tokenId) private {\n        // To prevent a gap in from's tokens array, we store the last token in the index of the token to delete, and\n        // then delete the last slot (swap and pop).\n\n        uint256 lastTokenIndex = ERC721.balanceOf(from) - 1;\n        uint256 tokenIndex = _ownedTokensIndex[tokenId];\n\n        // When the token to delete is the last token, the swap operation is unnecessary\n        if (tokenIndex != lastTokenIndex) {\n            uint256 lastTokenId = _ownedTokens[from][lastTokenIndex];\n\n            _ownedTokens[from][tokenIndex] = lastTokenId; // Move the last token to the slot of the to-delete token\n            _ownedTokensIndex[lastTokenId] = tokenIndex; // Update the moved token's index\n        }\n\n        // This also deletes the contents at the last position of the array\n        delete _ownedTokensIndex[tokenId];\n        delete _ownedTokens[from][lastTokenIndex];\n    }\n\n    /**\n     * @dev Private function to remove a token from this extension's token tracking data structures.\n     * This has O(1) time complexity, but alters the order of the _allTokens array.\n     * @param tokenId uint256 ID of the token to be removed from the tokens list\n     */\n    function _removeTokenFromAllTokensEnumeration(uint256 tokenId) private {\n        // To prevent a gap in the tokens array, we store the last token in the index of the token to delete, and\n        // then delete the last slot (swap and pop).\n\n        uint256 lastTokenIndex = _allTokens.length - 1;\n        uint256 tokenIndex = _allTokensIndex[tokenId];\n\n        // When the token to delete is the last token, the swap operation is unnecessary. However, since this occurs so\n        // rarely (when the last minted token is burnt) that we still do the swap here to avoid the gas cost of adding\n        // an 'if' statement (like in _removeTokenFromOwnerEnumeration)\n        uint256 lastTokenId = _allTokens[lastTokenIndex];\n\n        _allTokens[tokenIndex] = lastTokenId; // Move the last token to the slot of the to-delete token\n        _allTokensIndex[lastTokenId] = tokenIndex; // Update the moved token's index\n\n        // This also deletes the contents at the last position of the array\n        delete _allTokensIndex[tokenId];\n        _allTokens.pop();\n    }\n}\n\npragma solidity ^0.8.0;\npragma abicoder v2;\n\ncontract PUNK is ERC721Enumerable, Ownable {\n\n    using SafeMath for uint256;\n\n    address private owner_;\n    uint256 private tokenId;\n    bytes32 public merkleRoot = 0xcf8f50f657f2c8f3bf6628b05dcaf8aa2a8ced8db49eef4ff5a5767d72cb3c4a;\n\taddress private wallet1 = 0x431840A475E0aD62F9a67D752C9110F09CdB97c7;\n    address private wallet2 = 0x4e209Fc427BA76f073a91e837a1E3377EcFb9B6a;\n    address private wallet3 = 0xf2bAd1685b3B77ae95d165A1417273CBE121bddc;\n\taddress private wallet4 = 0x40B15D228838836b62Fb372DBBabcdB7c8f89B49;\n    address private wallet5 = 0xb3a696bd8D35C2908E2fD1805C75718088Acbd57;\n    address private Authorized = 0x431840A475E0aD62F9a67D752C9110F09CdB97c7;\n\n\n    uint256 public MCPPrice_whitelist = 7500000000000000;\n\tuint256 public MCPPrice_public = 15000000000000000;\n    uint public maxMCPTx = 20;\n\tuint public maxMCPPurchase = 40;\n    uint public mintWhitelistWL = 10;\n    uint public maxMCPPurchaseWL = 10;\n\n    uint256 public constant MAX_MCP = 6969;\n    uint public MCPReserve = 0;\n\tuint public MCPWhitelistReserve = 3485;\n\n\n    bool public whitelistSaleIsActive = true;\n\tbool public publicSaleIsActive = true;\n    mapping(address => uint) private max_mints_per_address;\n\n\t\n\n\n\n    string public baseTokenURI;\n\n    constructor() ERC721(\"Test Punks NFT\", \"PUNK\") { }\n\n    modifier onlyAuthorized {\n        require(_msgSender() == owner() || _msgSender() == Authorized , \"Not authorized\");\n        _;\n    }\n\n    function withdraw() public onlyOwner {\n        uint balance = address(this).balance;\n        payable(msg.sender).transfer(balance);\n    }\n\n    function reserveMCP(address _to, uint256 _reserveAmount) public onlyAuthorized {\n        uint supply = totalSupply();\n        require(_reserveAmount > 0 && _reserveAmount <= MCPReserve, \"Not enough reserve\");\n        for (uint i = 0; i < _reserveAmount; i++) {\n            _safeMint(_to, supply + i + 1);\n        }\n        MCPReserve = MCPReserve.sub(_reserveAmount);\n    }\n\n\n    function _baseURI() internal view virtual override returns (string memory) {\n        return baseTokenURI;\n    }\n\n    function setBaseURI(string memory baseURI) public onlyAuthorized {\n        baseTokenURI = baseURI;\n    }\n\n\n    function flipPublicSaleState() public onlyAuthorized {\n        publicSaleIsActive = !publicSaleIsActive;\n    }\n\n\t function flipWPSaleState() public onlyAuthorized {\n        whitelistSaleIsActive = !whitelistSaleIsActive;\n    }\n\n\n     function mint(uint numberOfTokens) public payable {\n        require(publicSaleIsActive, \"Sale not active\");\n        require(numberOfTokens > 0 && numberOfTokens <= maxMCPTx, \"20 pTX allowed\");\n        require(msg.value == MCPPrice_public.mul(numberOfTokens), \"Check ETH\");\n        require(max_mints_per_address[msg.sender].add(numberOfTokens) <= maxMCPPurchase,\"Max pW reached\"); // tdl remove\n\n        for(uint i = 0; i < numberOfTokens; i++) {\n            if (totalSupply() < MAX_MCP) {\n                _safeMint(msg.sender, totalSupply()+1);\n                max_mints_per_address[msg.sender] = max_mints_per_address[msg.sender].add(1);\n            } else {\n               publicSaleIsActive = !publicSaleIsActive;\n                payable(msg.sender).transfer(numberOfTokens.sub(i).mul(MCPPrice_public));\n                break;\n            }\n        }\n    }\n\n\n   // to set the merkle root\n    // function updateMerkleRoot(bytes32 newmerkleRoot) external onlyAuthorized {\n    //     merkleRoot = newmerkleRoot;\n     \n    // }\n\n\tfunction mintWhitelist(uint numberOfTokens, bytes32[] calldata merkleProof, bytes32 merkleLeaf) payable external  {\n        address user_ = msg.sender;\n\t\trequire(whitelistSaleIsActive, \"Whitelist sale not active\");\n        require(numberOfTokens > 0 && numberOfTokens <= mintWhitelistWL, \"10 pTX allowed\");\n        require(msg.value == MCPPrice_whitelist.mul(numberOfTokens), \"Check ETH\");\n        require(max_mints_per_address[msg.sender].add(numberOfTokens) <= maxMCPPurchaseWL,\"Max whitelist mints reached\");\n\n        // Verify the merkle proof\n        require(MerkleProof.verify(merkleProof, merkleRoot, merkleLeaf  ), \"Check proof\");\n\n\t\tfor(uint i = 0; i < numberOfTokens; i++) {\n            if (totalSupply() <= MCPWhitelistReserve) {\n                _safeMint(msg.sender, totalSupply()+1);\n                max_mints_per_address[msg.sender] = max_mints_per_address[msg.sender].add(1);\n            }\n\t\t\telse {\n               whitelistSaleIsActive = !whitelistSaleIsActive;\n                payable(msg.sender).transfer(numberOfTokens.sub(i).mul(MCPPrice_whitelist));\n                break;\n            }\n\t\t}\n\n\n       \n    }\n\n    function withdrawAll() external onlyOwner {\n        require(address(this).balance > 0, \"No balance\");\n        uint256 _amount = address(this).balance;\n        (bool wallet1Success, ) = wallet1.call{value: _amount.mul(20).div(100)}(\"\");\n        (bool wallet2Success, ) = wallet2.call{value: _amount.mul(20).div(100)}(\"\");\n        (bool wallet3Success, ) = wallet3.call{value: _amount.mul(20).div(100)}(\"\");\n\t\t(bool wallet4Success, ) = wallet4.call{value: _amount.mul(20).div(100)}(\"\");\n\t\t(bool wallet5Success, ) = wallet5.call{value: _amount.mul(20).div(100)}(\"\");\n\n        require(wallet1Success && wallet2Success && wallet3Success && wallet4Success && wallet5Success, \"Withdrawal failed\");\n    }\n\n    function setPriceWL(uint256 newPriceWL) public onlyAuthorized {\n        MCPPrice_whitelist = newPriceWL;\n    }\n\n    function setPrice(uint256 newPrice) public onlyAuthorized {\n        MCPPrice_public = newPrice;\n    }\n\n   function setmaxMCPTx(uint256 newmaxMCPTx) public onlyAuthorized {\n        maxMCPTx = newmaxMCPTx;\n    }\n\n   function setmaxMCPPurchase(uint256 newmaxMCPPurchase) public onlyAuthorized {\n        maxMCPPurchase = newmaxMCPPurchase;\n    }\n\n  function setmintWhitelistWL(uint256 newmintWhitelistWL) public onlyAuthorized {\n            mintWhitelistWL = newmintWhitelistWL;\n        }\n\n}",
  "sourcePath": "/home/pranjali/buildspace/moonCat/contracts/PUNK.sol",
  "compiler": {
    "name": "solc",
    "version": "0.8.0+commit.c7dfd78e.Emscripten.clang"
  },
  "schemaVersion": "3.4.3",
  "updatedAt": "2022-02-06T09:19:09.406Z",
  "networkType": "ethereum",
  "devdoc": {
    "kind": "dev",
    "methods": {
      "approve(address,uint256)": {
        "details": "See {IERC721-approve}."
      },
      "balanceOf(address)": {
        "details": "See {IERC721-balanceOf}."
      },
      "getApproved(uint256)": {
        "details": "See {IERC721-getApproved}."
      },
      "isApprovedForAll(address,address)": {
        "details": "See {IERC721-isApprovedForAll}."
      },
      "name()": {
        "details": "See {IERC721Metadata-name}."
      },
      "owner()": {
        "details": "Returns the address of the current owner."
      },
      "ownerOf(uint256)": {
        "details": "See {IERC721-ownerOf}."
      },
      "rawOwnerOf(uint256)": {
        "details": "Edit for rawOwnerOf token"
      },
      "safeTransferFrom(address,address,uint256)": {
        "details": "See {IERC721-safeTransferFrom}."
      },
      "safeTransferFrom(address,address,uint256,bytes)": {
        "details": "See {IERC721-safeTransferFrom}."
      },
      "setApprovalForAll(address,bool)": {
        "details": "See {IERC721-setApprovalForAll}."
      },
      "supportsInterface(bytes4)": {
        "details": "See {IERC165-supportsInterface}."
      },
      "symbol()": {
        "details": "See {IERC721Metadata-symbol}."
      },
      "tokenByIndex(uint256)": {
        "details": "See {IERC721Enumerable-tokenByIndex}."
      },
      "tokenURI(uint256)": {
        "details": "See {IERC721Metadata-tokenURI}."
      },
      "totalSupply()": {
        "details": "See {IERC721Enumerable-totalSupply}."
      },
      "transferFrom(address,address,uint256)": {
        "details": "See {IERC721-transferFrom}."
      },
      "transferOwnership(address)": {
        "details": "Transfers ownership of the contract to a new account (`newOwner`). Can only be called by the current owner."
      }
    },
    "version": 1
  },
  "userdoc": {
    "kind": "user",
    "methods": {},
    "version": 1
  }
}